5225BITTY2                              0000205122PPDREPAYMENT 210727210728   1107002310000001
6270112014589292012          00000049001098707572     MORGANAGALLIONE         0107002310000001
6272550719811361424100       00000049001099919194     DOCTRANSPORTSERVICELLC  0107002310000002
6270631021521000261709199    00000049001101993998     CAPRITRANSPORTATIONLLC  0107002310000003
627092902297141054           00000049001101996968     BRANDONJCLOUSE          0107002310000004
627114000093020773131        00000049001101997248     ALAMOASPHALTTESTINGLLC  0107002310000005
6272211721866500118157       00000049001102024232     SCOREBOARDSCAFELLC      0107002310000006
627121000358325137647367     00000049001102025196     JOEGARCIA               0107002310000007
6271119163261000705689       00000049001102026902     ASGARAGEDOORSERVICELLC  0107002310000008
627041201321826116           00000049001102235148     AGAPEHOMEHEALTHCARELLC  0107002310000009
627021200339381047476251     00000049001102235830     JPDUDLEYLOGISTICSLLC    0107002310000010
6270433068267802692603       00000049001102240218     PREMIERGUTTERGUARDANDC  0107002310000011
6272560749747112836163       00000049001102240360     KENRELLLLC              0107002310000012
627313185515926830316        00000049001102240468     GOATTRANSPORTATIONLLC   0107002310000013
627072000326537585835        00000049001102240608     BLACKSTARGLOBALCORPORA  0107002310000014
627072000326286993511        00000049001102240716     GREYHAWKEENTERPRISESLL  0107002310000015
6270410001244151917797       00000049001102242298     CAPTAINHOOK39SPAINTING  0107002310000016
627044000037855516105        00000049001102242590     TRINITYDESIGNANDCONSTR  0107002310000017
6271130112585797972360       00000049001102244286     MAJESTICPALMSLANDSCAPI  0107002310000018
6270650000907528139269       00000049001102245234     CAPITALVIRTUESLLC       0107002310000019
627281081877920548622        00000049001102245256     SFCRLLC                 0107002310000020
6273149784460230092033       00000049001102245268     JAMESADECKERJR          0107002310000021
627122101706457039891370     00000049001102245440     INTEGRITYCLEANING1LLC   0107002310000022
6270640037688499066291       00000049001108233014     NEXTLEVELTRANSPORTLLC   0107002310000023
627021200339381047061899     00000049001112478956     ALLWAYSFORWARDTRANSPOR  0107002310000024
627031202084383019814263     00000049001112480194     GPINVESTINGLLC          0107002310000025
627063100277229059266294     00000049001112481310     JJMPDENTALINC           0107002310000026
627122400724501013972857     00000049001112486546     TERCEROAUTOEXPRESSLLC   0107002310000027
6270531011210005208629281    00000049001112488038     SJMTRANSPORTLLC         0107002310000028
627021200339381059084026     00000049001112493342     CULTIVATEDBOHEMIANSLLC  0107002310000029
6270430000961082400546       00000049001112495390     OLIVIAWARD              0107002310000030
627071000013515121528        00000049001112495856     BISTRANSPORTINC         0107002310000031
627021000021393237380        00000049001112789204     LUGGAGEFITLLC           0107002310000032
627011900571385025675915     00000049001112789264     GENEJLAVIGNE            0107002310000033
62707590097330190001         00000049001112791312     MATTHEWSFAMILYTRUCKING  0107002310000034
627121000358325137743038     00000049001112793202     COSTELLOCLEANINGLLC     0107002310000035
6271119006597995158982       00000049001112793300     GENIALTRANSPORTATIONLL  0107002310000036
627021308642880074000        00000049001112793382     ROBERTFINCH             0107002310000037
6271221052783961752502       00000049001112793632     360FRESHSTARTLLC        0107002310000038
6272660865549147411995       00000049001112793644     NATURALLYUCOSMETICSLLC  0107002310000039
6271213010280082360670       00000049001112793670     SPILLMANSTAXSERVICESLL  0107002310000040
627074000010659336785        00000049001112793684     LAGENERALCONSTRUCTIONL  0107002310000041
6271130105476792581240       00000049001112793740     SPEEDOFLIGHTPRODUCTSQT  0107002310000042
627052001633446034810448     00000049001112793760     EVEDALEHOMEIMPROVEMENT  0107002310000043
627065400137117011525        00000049001112797500     ADVANCEDHEALTHRESOURCE  0107002310000044
627051000017004128811384     00000049001112797588     RUSTAVICONSTRUCTIONCOM  0107002310000045
627063000047898118982675     00000049001112797618     FASTFORWARDTRADINGCOMP  0107002310000046
627111000614213570291        00000049001112797714     DANIELDARBY             0107002310000047
6271220002475206122870       00000049001112797802     JOSEVELAZQUEZ           0107002310000048
6271049139129622063366       00000049001112802238     JBOYSTRUCKINGLLC        0107002310000049
6272560749747116527552       00000049001112802686     QLWTRANSPORTLLC         0107002310000050
6271119006595269641212       00000049001112802732     CHRISKILOGISTICSLLC     0107002310000051
627021000322483060532847     00000049001112803978     LOCALENTERPRISECORP     0107002310000052
627031101279875101669070     00000109001128761559     JLEWISHOLDINGSLLC       0107002310000053
627021000021713078951        00000357001129722579     KILEYZKITCHENINC        0107002310000054
6272810823841043065027       00000490001129722793     ADDAENVIRONMENTALLLC    0107002310000055
627075000019707578727        00000098001129723019     MILLIONAIRETIESLLC      0107002310000056
6270710256614828827781       00000298001129723077     DELMORETRANSPORTLLC     0107002310000057
6270842012948016743056       00000447001129723229     MAVTRANSPORTATIONLLC    0107002310000058
627111000025488088432720     00000049001129723273     LEIGHDARNELL            0107002310000059
6270434000361472010798       00000118001129723275     CICCHELLISLANDSCAPINGS  0107002310000060
62732117338600000011121188   00000199001129723385     FERNANDOMENDOZA         0107002310000061
6272560749747101779549       00000119001129723491     HAULERHOTSHOTLLC        0107002310000062
6272750797149002747032       00000270001129723495     POINTGUARDLOGISTICSLLC  0107002310000063
627111000614656513717        00000149001129723513     OUTBRAININC             0107002310000064
6270612096171116088          00000710001129723517     SOUTHERNROOTSLANDSCAPI  0107002310000065
627242176006520930           00000169001129723519     LEXINGTONHOMEPAINTINGL  0107002310000066
6270929016830801076209       00000071001129723615     MIDMOUNTAINCONCRETEPUM  0107002310000067
627063116481100110147426     00000954001129723617     BUSINESSBENEFITALLIANC  0107002310000068
6271130112585797972360       00000139001129723631     MAJESTICPALMSLANDSCAPI  0107002310000069
6271210428822462099983       00000179001129723633     REALMARKETINGPROFITLLC  0107002310000070
627111000614533716889        00000099001129723883     ATHLETESOFEXCELLENCELL  0107002310000071
6270829008720034925216       00000109001129723919     THECREOLEGIRLSCAFELLC   0107002310000072
627031202084383021825143     00000049001129724405     DACK39SLOGISTICSLLC     0107002310000073
6271119006593686750187       00000100001129724969     BIGWILLSTRANSPORTATION  0107002310000074
6272660865549147411995       00000158001129724971     NATURALLYUCOSMETICSLLC  0107002310000075
627122235821165100552398     00000149001129724979     CONSTRUCTIONFENCERENTA  0107002310000076
627071000013537515327        00000339001129725041     MOMMYMAIDDSERVICESINC   0107002310000077
6270210000896862732413       00000184001129725043     DANKEGENERALSERVICESLL  0107002310000078
627101201892126888848        00000238001129725047     JNPELECTRICLLC          0107002310000079
627064000020444024338217     00000109001129725181     KROWNWIGSEXTENSIONSLLC  0107002310000080
627053000196237039839329     00000089001129725261     LAURAMICHELLEMILLER     0107002310000081
6272630792767505991019       00000111001129725263     FRESHPAINTERSPROFESSIO  0107002310000082
6272560749747093703309       00000142001129726743     ALLTHINGSINC            0107002310000083
627121000358325127132170     00000129001129726987     EXPRESSMETALMANUFACTUR  0107002310000084
6272560749747077797475       00000130001129726989     WAYOUTENTERPRISESINC    0107002310000085
6270213131034015737813       00000090001129727065     SAXTONSJANITORIAL       0107002310000086
6270213131034015737813       00000049671129727165     SAXTONSJANITORIAL       0107002310000087
6272560749747101110158       00000149001129727181     THEGREAVESGROUPINC      0107002310000088
627111000025488099985745     00000484001129727363     DARRELLGMIMMS           0107002310000089
62723117678700009075128      00000447001129727375     DCFLOORINGPROLLC        0107002310000090
627053904483223024689815     00000040001129727677     MOBILETECHROADSIDEGENE  0107002310000091
6272212720311001483158       00000199001129728191     CLASSICTAILORINGONFLUS  0107002310000092
627104113408100049           00000179001129728971     4JPEXPRESSLLC           0107002310000093
627021200339381046886253     00000069001129730031     QUEENSLOGISTICSLLC      0107002310000094
6270620011866786417269       00000318001129730047     THESTADIUMMOBILELLC     0107002310000095
627061000052334051942027     00000128001129731113     HEARDEQUITIESLLC        0107002310000096
6270531125921878002466       00000470001129732887     COOPERTRUCKINGOCGLLC    0107002310000097
627063000047898104266363     00000012001129917525     NORTHFIELDTECHLLC       0107002310000098
6270830001083019214539       00000069001129917995     PMRSERVICESLLC          0107002310000099
627041201321826116           00000080001129918311     AGAPEHOMEHEALTHCARELLC  0107002310000100
627111000025488100160608     00000129001129918315     TEXASFOURREGIONHOLDING  0107002310000101
627267084131538639797        00000020001129918697     MJLDESIGNBUILDLLC       0107002310000102
627063000047898099268476     00000049001129918851     SHERLEYJPIERREDBAPIERR  0107002310000103
627091000022104786042580     00000025001129919143     DEDICATEDTOCLEANINGSER  0107002310000104
6270531011215208044135       00000059001129919149     POPSAUTOMOTIVEENTERPRI  0107002310000105
6270719016048100640492       00000104001129919175     KLASSICKIDZEVENTSERVIC  0107002310000106
6272550719811361006069       00000071001129919187     PROSPERITYONELLC        0107002310000107
6270749037191016439904       00000094001129919191     RATIODANCELLC           0107002310000108
62706530230319367380         00000161001129919433     WHOLLOWAYTRUCKINGLLC    0107002310000109
627221371372108004987        00000082001129919499     MICHAELJIZZODBAIZZOFAM  0107002310000110
6270640000461000280433250    00000030001129919675     MASTERTECHAUTOREPAIR    0107002310000111
627065400137684572149        00000020001129919747     LOCKRIDGETRUCKINGLLCDB  0107002310000112
6272630790431300000206790    00000059001129919751     HEALTHCARECONSULTINGSO  0107002310000113
627322271627528701789        00000123001129919753     D39CARPIOTRANSPORTLLC   0107002310000114
6270560044452400033307       00000099001129919763     BLOOMINGHAIRLLC         0107002310000115
6272631913871100009728633    00000052001129919765     ELLEBELLEPHOTOGRAPHYDE  0107002310000116
627111000025488073394103     00000149001129919777     COUNTRYWIDECONSTRUCTIO  0107002310000117
6270550032012000006133322    00000214001129919779     DARRYLCOLEMANMDPA       0107002310000118
627267084131597509980        00000040001129919781     MASTERSPAINTING1LLC     0107002310000119
6270829072732161608738       00000035001129919783     PAGEBOYSTRUCKINGENTERP  0107002310000120
627111000614636761162        00000149001129919807     NUTECHBUILDINGSOLUTION  0107002310000121
627125000024138127983215     00000058001129919815     CASTLEROCKDRILLINGANDC  0107002310000122
6272622764101710000071207    00000100001129919821     JESHEALTHSERVICESLLC    0107002310000123
627122235821165100552398     00000149001129919823     CONSTRUCTIONFENCERENTA  0107002310000124
6272116911270591900006       00000075001129919825     CURBAPPEALPROPERTYMAIN  0107002310000125
627122105155151707145224     00000125001129919827     THEVAPORVAULTLLC        0107002310000126
6272560749747079586348       00000045001129919845     CHANCEONLYTRUCKINGCOLL  0107002310000127
6271113117851929097          00000059001129919853     TERRYLEEPARDUELAZYTPFE  0107002310000128
627102001017212798786        00000175001129920289     LALOMACARNICERIALLC     0107002310000129
6270540000305563076976       00000049001129920291     TUCKERRUNCONSTRUCTIONL  0107002310000130
6271113145757034488          00000225001129920295     ROBERTSINGLER           0107002310000131
6270631075138915476389       00000230001129920299     J4DPETSALONLLC          0107002310000132
627322271627122955963        00000157001129920303     GOLIATHCONSTRUCTIONCOR  0107002310000133
6270520001139872519369       00000055001129920351     TITANIMPACTLLC          0107002310000134
6270514005496990279751       00000095001129920361     VASQUEZPOWERWASHINGLLC  0107002310000135
627101201892126888848        00000119001129920385     JNPELECTRICLLC          0107002310000136
6270631075136945790613       00000085001129920393     CLOUDSECURITYALARMSCOR  0107002310000137
6270929016830801076209       00000109001129920399     MIDMOUNTAINCONCRETEPUM  0107002310000138
6272410704174529230537       00000063001129920401     AMIHOLDINGCORPORATIONI  0107002310000139
627267084131538639797        00000020001129920403     MJLDESIGNBUILDLLC       0107002310000140
6271119006597271591757       00000109001129920417     BARBEDWIREBURGERCO      0107002310000141
6270710256614830916702       00000044001129920419     ECENTERPRISESERVICESLL  0107002310000142
6270719218914687807115       00000120001129920429     LEEHUITRUCKINGLLC       0107002310000143
6272560749747108505103       00000119001129920435     NICKSTRANSPORTLLC       0107002310000144
6271130084651506001161       00000075001129920439     MICHAELJONSTRAMBLER     0107002310000145
6270650000902082742126       00000138001129920447     EVOLUTIONFREIGHTLLC     0107002310000146
6270610002271068382157       00000089001129920453     EXCELLSERVICESOFSAVANN  0107002310000147
627121000358325148075821     00000238001129920467     ALIENSPOOPLLC           0107002310000148
6270611013750305158095       00000045001129920471     READYFREDDIELOGISTICSL  0107002310000149
6270631075131279422602       00000065001129920475     DK39SLAWNPROFESSIONALS  0107002310000150
6270631075133173713318       00000050001129920487     HUBERTODOUGLAS          0107002310000151
6270514031648523730046       00000039001129920489     HALESFORDHARBORMARINEA  0107002310000152
6270441158091441006259       00000029001129920491     CONFIDENTLYCURVYPLUSTI  0107002310000153
6271149025282114804348       00000059001129920501     JVTFREIGHTCARRIERSINC   0107002310000154
627011000138466012092530     00000058001129920505     JOACHIMFAMILYSERVICESL  0107002310000155
627072000326362369651        00000075001129920525     SSTRANSPORTATIONANDLOG  0107002310000156
627051404260258276760        00000149001129920535     OSOJUICEEHAIRLLC        0107002310000157
627322271627613239281        00000119001129920575     ACESAUTODIAGNOSTICSINC  0107002310000158
62711311025610322444         00000199001129920599     JOHNAE39SKITCHENLLC     0107002310000159
6271031010260389734          00000123001129920603     OLLINLONG               0107002310000160
6271119006597574107046       00000170001129920617     JVACONSTRUCTIONLLC      0107002310000161
627267084131610509603        00000238001129920633     MILEY39SEXCAVATIONCORP  0107002310000162
62727598280140121239178      00000040001129920641     VINTAGESPECIALTYPROPER  0107002310000163
627121100782062279609        00000120001129920643     DECKPROLV               0107002310000164
627267084131597509980        00000030001129920645     MASTERSPAINTING1LLC     0107002310000165
627082900432132762392        00000103001129920651     CRAIGWILLIAMSLLC        0107002310000166
627021202337523658307        00000089001129920653     ALIAFOODLLC             0107002310000167
6272560749747094702086       00000055001129920663     SPECSINTHECITY          0107002310000168
6272560749747107600665       00000029001129920665     CALCULATEDTRANSPORTATI  0107002310000169
6270412087351017847          00000069001129920687     JOSEPHBBARKER           0107002310000170
627113000023586038519265     00000087001129920699     AGSEETRANSPORTUSALLC    0107002310000171
627122100024663229505        00000007001129920701     SOUTHWESTBATHBODYCO     0107002310000172
6272560749747101764889       00000153001129920703     CHRISTOPHERLAWRENCE     0107002310000173
627103000017305008994282     00000078001129920749     VIKINGLOGISTICSLLC      0107002310000174
6271020000765549061132       00000051001129920753     QUALITYFROMCOLORADOLLC  0107002310000175
627121000358325024742728     00000030001129920767     ALMAROMERO              0107002310000176
62702120138341782674         00000069001129920769     MARIBELBORBON           0107002310000177
627322281617555806895        00000104001129920777     JESSICACASTILLO         0107002310000178
6271119255790009498          00000125001129920779     CHELSIWHITTENDBACMFENC  0107002310000179
6270620011866784523304       00000081001129920889     JONDOETRUCKINGLLC       0107002310000180
627113000023488096440720     00000075001129920895     BLUESKYPROPERTYSERVICE  0107002310000181
627111000614581663686        00000119001129920915     FAIRHOLDINGSLLC         0107002310000182
627021000322483053716531     00000735001129920935     DMILESMEDIALLC          0107002310000183
627075000019613518189        00000094001129920937     DEMONFIREGUNWORKSLLC    0107002310000184
6272750797149001730079       00000079001129920955     KNECUSTOMSLLC           0107002310000185
6270531011211340017054421    00000149001129920965     APLUSITTECHSLLC         0107002310000186
627063100277898113368841     00000194001129920969     PASSIVETRUCKINGLLC      0107002310000187
6270210000896797935993       00000140001129920973     RCJWTRUCKINGLLC         0107002310000188
6272630792767900232084       00000108001129920979     JAYSDRYWALLLLC          0107002310000189
627267084131536798280        00000049001129920983     VECPRESCHOOLSLLCDBALIT  0107002310000190
6271119006597842832755       00000065001129920989     PROGENDINC              0107002310000191
627102000021103684894142     00001670001129920995     DESTROYERSTRUCKINGINC   0107002310000192
6272214736520009993807586    00000069001129920999     ALLSTARSTREESOLUTIONSL  0107002310000193
627011000138466005893377     00000029001129921009     ASBORTOLOTTORENOVATION  0107002310000194
6270610002275521325125       00000650001129921011     SHUCOMPANYCOLLC         0107002310000195
6273119893020001414502       00000220001129921021     DUSTYREEVESDBADUSTYREE  0107002310000196
627052001633446041688126     00000100001129921023     MONISHAMERRIWEATHER     0107002310000197
6270440021617932987840       00000150001129921049     OPTIMALSOLUTIONSOFCOLU  0107002310000198
627072000326602038066        00000030001129921051     PRECISIONBUILTCARPENTR  0107002310000199
627121000358325120414853     00000238001129921055     JIKODESIGN              0107002310000200
6270531011211340007790715    00000149001129921063     ADAMSCONSTRUCTIONANDMA  0107002310000201
6270631075131109081222       00000020001129921067     ALLYSCLEANINGTEAMLLC    0107002310000202
627103000648389635092        00000115001129921071     INVRGIZAFLOORINGLLC     0107002310000203
6270650000902082787228       00000049001129921077     ABOVETHEBEYONDSTUDIOSL  0107002310000204
6271119006595118974681       00000025001129921079     JAFACELIFTSCONSTRUCTIO  0107002310000205
627044000037611019370        00000069001129921081     HAMMONDITSERVICESLLC    0107002310000206
6271070050472021304946       00000040001129921093     HEIDIHOSKINS            0107002310000207
627111000614385095663        00000059001129921095     DSTRANSPORTLLC          0107002310000208
6273252723519018417013       00000010001129921097     SIZZLINGCHOWCUISINE     0107002310000209
6270610002277015495877       00000059001129921099     MRZTRANSPORTATIONINC    0107002310000210
627063000047898096494049     00000059001129921105     SUGARNAILSPALLC         0107002310000211
6270310005032384424004       00000095001129921109     CONTINENTALMERCHANTSER  0107002310000212
627101100016131113           00000059001129921111     THOMASKKAUTZ            0107002310000213
6272550719811361021645       00000235001129921113     MBGENERALCONTRACTORSLL  0107002310000214
627111000614687223104        00000224001129921119     CAPOLOGICLLC            0107002310000215
6272560749747108449070       00000125001129921131     DKSUPERIORLLC           0107002310000216
627114000093020783412        00000059001129921155     PSALM47MARKETINGDESIGN  0107002310000217
6272560749747096365064       00000120001129921157     CYCTRANSPORTATIONLLC    0107002310000218
6270612102370355842          00000169001129921161     MRBSHAULINGCOLLC        0107002310000219
6270434000361472010798       00000118001129921163     CICCHELLISLANDSCAPINGS  0107002310000220
6272213809366069293083692    00000198001129921167     VACHAUMONTRIVERFARMS    0107002310000221
627075903158330220372        00000199001129921169     GEORGEESMOLINSKI        0107002310000222
627121000358325145352848     00000179001129921171     E6TRUCKINGINC           0107002310000223
627091302966891115819        00000072001129921173     VALLEYPESTCONTROL       0107002310000224
62721138555612011461003243   00000069001129921175     BERTUDEEDMOND           0107002310000225
6270611134155247884000       00000090001129921183     JAMELLOSGOOD            0107002310000226
6270212000257171385169       00000059001129921187     2NDTONONECOURIERSERVIC  0107002310000227
627121000358325138087793     00000088001129921193     EFFICIENTBUILDERS       0107002310000228
62731318260212855180         00000090001129921195     ARRINGTONEXPRESSLLC     0107002310000229
6270740142136000106663       00000075001129921201     LCLIMITED               0107002310000230
627063000047898095550049     00000125001129921209     COPELANDTRUCKINGLLC     0107002310000231
627122100024637398360        00000112001129921225     GUNSITEROOFINGLLC       0107002310000232
627021000322483086039858     00000059001129921227     MAURICEDEONDICK         0107002310000233
6272560749747088887406       00000089001129921229     JERSEYTRANSPORTATIONLL  0107002310000234
6271131230652385271          00000059001129921233     CHADJHAYES              0107002310000235
6270631075138056782959       00000120001129921235     ISLANDMARINELLC         0107002310000236
62708290163545179508         00000218001129921237     4DCONSTRUCTIONLLC       0107002310000237
62726318136873293244         00000065001129921249     FLORIDASCREENINGTECHNI  0107002310000238
6270214079127528878001       00000099001129921253     NISHAJOHNSALONCORP      0107002310000239
6270313014221101308184       00000119001129921255     GREENEARTHCONSTRUCTION  0107002310000240
6271031023681013111904       00000149001129921265     CORYMICHAELBREWER       0107002310000241
627322271627813680993        00000119001129921267     FRANCISCOJAVIERRENTERI  0107002310000242
6270530002193851422422       00000098001129921269     DREJOHNSONSONSTRUCKING  0107002310000243
627081904808291016640218     00000238001129921271     MACKINVESTMENTSCORPORA  0107002310000244
6270214079127057521352       00000099001129921273     NEIL39SSHOELEATHERLLC   0107002310000245
6271070021929395668883       00000079001129921275     MICHAELBROWN            0107002310000246
6270910000193572076028       00000059001129921279     JANDNSIDINGINCORPORATE  0107002310000247
6271149248101010350694       00000238001129921285     GEMMACARRIERSLLC        0107002310000248
6272560749747112095810       00000105001129921287     MAKERTRANSPORTATIONLLC  0107002310000249
627111000025488094665167     00000050001129921295     GENERALSTRATEGICRESOUR  0107002310000250
6270550027071000204437056    00000065001129921297     INSECONDSLOGISTICSLLC   0107002310000251
627061000052334046740940     00000079001129921299     PAYSOURCELLC            0107002310000252
627111000614553981371        00000163001129921301     BOTANICALNO9FLORALLLC   0107002310000253
627051000017435031518709     00000100001129921303     JOSEPHPGURRALAMDPLLC    0107002310000254
627301081508001346077702     00000089001129921305     LANDRTRUCKINGLLC        0107002310000255
6272560749747100003859       00000045001129921313     LARAYTRUCKINGLLC        0107002310000256
627123000220153696603536     00000069001129921315     ATTRUCKINGSERVICESINC   0107002310000257
6271240029712344781923       00000362001129921317     DESTINFLORIDAREALESTAT  0107002310000258
62732217470820010041370318   00000052001129921319     GOBEASANDSONSTRUCKINGL  0107002310000259
6270640000170266055350       00000200001129921323     KAXXLLC                 0107002310000260
6270111030934359729816       00000148981129921325     CAFE457LLC              0107002310000261
6270312013604342499674       00000069001129921335     DUARTERESTAURANTLLC     0107002310000262
6271221052787177933806       00000135001129921337     EMMETTSANDCOLLC         0107002310000263
627281573288258005953        00000089001129921339     YOU39RETHECOACHTRANSPO  0107002310000264
6273119863761532800877       00000238001129921347     HUGO39SHOMESLLC         0107002310000265
627267084131660101376        00000173001129921357     BENCIABEAUTYLLC         0107002310000266
6270612023713902000375       00000029001129921359     RANDALLFDVORANDBAGLOBA  0107002310000267
627056001066037109350        00000119001129921361     MAHFUZURKHAN            0107002310000268
627061092387652792968        00000032001129921363     CYBERNOPLLC             0107002310000269
6271210428821445968033       00000119001129921365     VISTAPACIFICTRANSPORTL  0107002310000270
6270812188792069016          00000079001129921369     DOUGLASHEGGEMEIERDBADA  0107002310000271
6270620000805590934336       00000059001129921373     COURTLANDTRUCKINGLLC    0107002310000272
627021000021527753658        00000048001129921375     JPPMAINTENANCEINC       0107002310000273
627075000019836538020        00000119001129921383     DAVIDGOLIATHINC         0107002310000274
6270422077357904261448       00000238001129921385     WAUGHCONSTRUCTIONLLC    0107002310000275
627021000021630239363        00000059001129921387     RJTRUCKINGLLC           0107002310000276
6270720000961852811601       00000095001129921389     GRAYMANEEXPRESSTRANSPO  0107002310000277
6272560749747110499410       00000075001129921391     DEBORAHKNAYLOR          0107002310000278
6270631075137411191146       00000069001129921393     CHITARAMWELCHDBAUPSCAL  0107002310000279
6270719081604474920          00000065001129921399     THEODOREWRIGHTJR        0107002310000280
627074000010291909650        00000149001129921401     HART39SGARAGEDOORREPAI  0107002310000281
627322271627612999521        00000135001129921407     COCOSBISTROINC          0107002310000282
627053904483223019924035     00000089001129921417     FLAKITOSAUTOMOTIVE      0107002310000283
6270360018084374019482       00000108001129921419     BLUEGALAXYMARBLEANDGRA  0107002310000284
6271221057446754345940       00000049001129921421     DAVIDMEDIASOLUTIONS     0107002310000285
627267077627940047683        00000104001129921425     PHARUSGROUPLLC          0107002310000286
6272113720352000974457       00000075001129921427     TAMASWOODFLOORSLLC      0107002310000287
627044000037650271213        00000238001129921429     RIGGSFARMFENCESERVICES  0107002310000288
6273111750931388214002       00000108001129921433     TECHMEDICSLLC           0107002310000289
62705310030052437802         00000179001129921435     SAJONESLLC              0107002310000290
62703117611036112876424      00000129001129921437     TOMIKAYVETTEWILLIAMS    0107002310000291
627267084131350237100        00000040001129921439     ASSOCIATEDCARGOOFFLORI  0107002310000292
6270819048082913032121       00000059001129921445     THORGENERALCONTRACTING  0107002310000293
6270210000896797935993       00000125001129921447     RCJWTRUCKINGLLC         0107002310000294
627021000021722277586        00000029001129921449     ZOVONTESVAPESLLC        0107002310000295
627063100277229056174826     00000140001129921451     ROOTSSPACEINCDBAEATTIT  0107002310000296
627021000021565723852        00000025001129921455     JOSHUASANTOS            0107002310000297
6272724828411010017325843    00000059001129921475     AMYLOURENACOBURN        0107002310000298
6271070021926698616684       00000050001129921477     SUPERSPORTTRUCKINGLLC   0107002310000299
6270213131034015737813       00000049671129921479     SAXTONSJANITORIAL       0107002310000300
627074000010271675099        00000112001129921481     CMLHOLDINGSLLCDBALOCKE  0107002310000301
627052001633446045142325     00000105001129921483     DICONTRACTORSLLC        0107002310000302
6270631075132436586024       00000099001129921487     TOPNOTCHLAWNCAREOFNWFL  0107002310000303
627011400495388005828886     00000125001129921491     PARAMOUNTROOFINGREMODE  0107002310000304
627267084131539382561        00000049001129921499     ACNETWORKCORP           0107002310000305
6272113729250045145067       00000135001129921501     JKLANDSCAPECONSTRUCTIO  0107002310000306
6271220004960111389250       00000146001129921505     AUTOMATICDATACAPTURETE  0107002310000307
627063100277898102349279     00000040001129921507     ALISTERWORLDLLC         0107002310000308
6270532009838010000437107    00000069001129921509     CLEANINGSENSATIONSLLC   0107002310000309
62722238042713700001279808   00000056001129921511     MARIAALAINRODRIGUEZ     0107002310000310
6272560749747081630555       00000520001129921515     1CALLPAULBARBERANDBEAU  0107002310000311
62724327294117145170         00000169001129921517     WILCOXHAULINGLLC        0107002310000312
62707240347301383020405      00000119001129921519     BODYLOUNGELLC           0107002310000313
627061000052334057987240     00000109001129921523     MUHAMMEDSERIKI          0107002310000314
627051000017435037863199     00000109001129921525     PRODIGYENTERPRISESLLC   0107002310000315
627051000017435036073605     00000042001129921531     DGVCONTRACTORSINC       0107002310000316
6272550719811361449855       00000230001129921533     PAHASSOCIATESLLCDBAMIS  0107002310000317
6272660865549145848382       00000129001129921535     APDPASSLLC              0107002310000318
627021200339381046768821     00000149001129921541     SKYLINETECHNOLOGYUSALL  0107002310000319
62704220650301085824         00000069001129921543     MJHAFFNERTRUCKINGLLC    0107002310000320
627073000545196473952022     00000089001129921545     LILLYPADBOUTIQUELLC     0107002310000321
6272560749747095988452       00000045001129921553     BENJAMINLOGISTICSLLC    0107002310000322
6270622039840000127203628    00000200001129921555     S2FLOGISTICSLLC         0107002310000323
627081212574510110568        00000089001129921561     GARZAUNLIMITEDLLC       0107002310000324
6272531848410008201251770    00000129001129921569     LBDTRANSPORTERINC       0107002310000325
627061000052334052891801     00000129001129921573     DAVIDWILLIAMENGSTROM    0107002310000326
62726557758500900010800962   00000079001129921577     TRANSITSOLUTIONSLLC     0107002310000327
6270610002278652531644       00000129001129921581     PHONESAYVIENGXAYDBAATL  0107002310000328
6270540000305366464451       00000015001129921585     CARMENWAUGH             0107002310000329
627031202084383019269999     00000112001129921587     PETERSONWASTESERVICESL  0107002310000330
6270550032013174108914       00000082781129921595     RIDEOUTLLC              0107002310000331
627113000023488076538869     00000069001129921607     JAMROCKHANDYMANSERVICE  0107002310000332
6270611013750303875660       00000109001129921615     TRINITYHOUSEFLIPPERSLL  0107002310000333
62728207502810001181543      00000262001129921617     HBACONSTRUCTIONLLC      0107002310000334
62721139182540264772         00000169001129921619     MGBLANDSCAPINGCONSTRUC  0107002310000335
62706400863716250584         00000349001129921629     ALADDINCONSTRUCTIONINC  0107002310000336
627081904808291029887327     00000039001129921631     DMJCABLEINC             0107002310000337
6270260128813780947564       00000052001129921635     JAMESMACKENZIE          0107002310000338
6270410001244234150667       00000049001129921637     SOKHNANDIAYE            0107002310000339
6270532016071410016818663    00000039001129921649     CTBLOGISTICSLLC         0107002310000340
6272560749747111754847       00000039001129921651     ABDULSPLUMBINGSERVICEL  0107002310000341
627064008637800106622467     00000069001129921653     THEHAPPYBELLYCOMPANYOF  0107002310000342
62726427956765463160         00000059001129921657     DOITALLCORP             0107002310000343
6270631046680262586505       00000129001129921659     YUNIENTERPRISELLC       0107002310000344
627267084131955891189        00000070001129921661     ZIONCHILDRENACADEMYINC  0107002310000345
627271070801801332269        00000159001129921663     NORTH3555CENTRALINC     0107002310000346
627051000017435043392243     00000110001129921665     MARTINWILSONFIXWILSONI  0107002310000347
6270540000305349190882       00001355001129921667     THEGURUOFABSCORP        0107002310000348
6271210428828093233909       00000159001129921669     DIXONUNIVERSALSERVICES  0107002310000349
627113000023488097631127     00000079001129921671     ROBERTOSAUCEDAVAZQUEZ   0107002310000350
627065400137612896263        00000380001129921673     DSRLLC                  0107002310000351
6270260128817110835670       00000082001129921679     GREATERCOMMERCEGROUPLL  0107002310000352
6272313726919534251542       00000055001129921681     BGETSITTRUCKINGLLC      0107002310000353
627071103619291029565788     00000151001129921687     JOHNNYBLAZETRUCKINGLLC  0107002310000354
6270280001210010000000164591200000178151129921691     NAPOLEON39SFINEARTLLC   0107002310000355
6271240029715740957484       00000049001129921695     LYLELATIMER             0107002310000356
6270540000305321644328       00000199001129921697     VINTAGEASSETADVISORSLL  0107002310000357
6271119006598003893750       00000063001129921707     MEYERFITNESSLLC         0107002310000358
627063000047898104207018     00000189001129921709     OGTRANSPORTLINELLC      0107002310000359
6270312013604350623455       00000109001129921711     SYLVESTERRANDALL        0107002310000360
6273149728538195101749       00000029001129921713     DASHLOGISTICSLLC        0107002310000361
627121143781418044109        00000130001129921717     9AND40DINERLLC          0107002310000362
627111000614868980991        00000163001129921719     NEKEISHAKING            0107002310000363
6270260136734346313705       00000039001129921723     DONNASDUTCHPOTINC       0107002310000364
6273211705386774497763       00000159001129921733     ESSENTIALREALTYLLC      0107002310000365
6270631075135904680823       00000119001129921739     STRADLINGTRANSPORT      0107002310000366
6270611024000250006960       00000318001129921743     ERICSBARRINC            0107002310000367
6273233807661900001342143    00000225001129921751     JBSEPTICLLC             0107002310000368
62704121501601472852704      00000045001129921753     DANIELJMOLNARDBAEAGLER  0107002310000369
6270650000907528923292       00000199001129921755     ABMCOUSINSLLC           0107002310000370
6270610002276256915486       00000050001129921757     JAYTEESQUAREDMANAGMENT  0107002310000371
627061000052334062968631     00000055001129921759     ESAUMORALES             0107002310000372
627061000052334062787239     00000119001129921769     MYXERSBARANDGRILLLLC    0107002310000373
62711130112282110066824      00000119001129921771     JEREMYSQUAREDLLC        0107002310000374
6272560749747108960852       00000109001129921773     DEPENDABLEEXPRESSLLC    0107002310000375
6271130105476775357671       00000079001129921777     DERRICKSIMMONS          0107002310000376
6271211010371345005928       00000159001129921779     KMINDUSTRIALSUPPLYLLC   0107002310000377
627061000052334064435886     00000042001129921781     UNIVERSALTRANSPORTERSA  0107002310000378
627244077556800012837682     00000667001129921783     CAMPBELLTRUCKINGSERVIC  0107002310000379
627063116481100110147426     00000318001129921785     BUSINESSBENEFITALLIANC  0107002310000380
627071000013522911178        00000119001129921787     SUBURBANSOLARSOLUTIONS  0107002310000381
627111000614615520712        00000099001129921791     ELITETRANSPORTATION     0107002310000382
6272211721866500723237       00000059001129921793     PJWINELIQUORLLC         0107002310000383
627121000358325115347647     00000040001129921795     BOSS90LLC               0107002310000384
6270540000305354811292       00000058001129921797     HVACECOLOGYLLC          0107002310000385
627122101706457037075978     00000049001129921799     AZAMSOHEILIINC          0107002310000386
627121000358325117185218     00000813001129921801     HIGHPERFORMANCEELECTRI  0107002310000387
6271119006598619176251       00000079001129921807     FTOHUNTINGFISHINGLLC    0107002310000388
6272560749747102709099       00000207001129921809     XPRESSCLEANINGSOLUTION  0107002310000389
6272560749747068393649       00000542001129921815     VEROSLLC                0107002310000390
6272410704174531233238       00000159001129921817     WESTCOASTINSURANCEGROU  0107002310000391
627121000358325137934614     00000075001129921819     DANIELFRYER             0107002310000392
62732337107615106007421      00000229001129921821     WASHINGTONCONSTRUCTION  0107002310000393
6270441158091441001789       00000089401129921823     ORIOLDCONTRACTORSLLC    0107002310000394
6272560749747093198104       00000059001129921825     JAMESJJARRETT           0107002310000395
6272560749747109059670       00000138001129921827     LONEWOLFTRUCKINGLLC     0107002310000396
6270650000902082742126       00000052001129921829     EVOLUTIONFREIGHTLLC     0107002310000397
627021200339381054125223     00000318001129921831     CWTRANSPORTATIONCORP    0107002310000398
6272560749747119631476       00000069001129921833     SHEMAINTERNATIONALLEAR  0107002310000399
627325181015512474909        00000112001129921835     CHRISTOPHERSTANTON      0107002310000400
62704121501601472873055      00000246001129921837     BP3TRANSPORTLLC         0107002310000401
627061092387562876893        00000099001129921845     THEORALPLUGLLC          0107002310000402
627053000196237043728471     00000069001129921847     SOICYLLC                0107002310000403
6270260136734371927448       00000125001129921851     POLOSERVICESCORP        0107002310000404
6270540000305366427888       00000149001129921859     SPIVIZIONINTERNATIONAL  0107002310000405
627322271627564670070        00000209001129921861     MARTIZAMORENO           0107002310000406
627061000052334059102327     00000112001129921863     INTOWNHOMERENOVATIONSI  0107002310000407
627021000021635080036        00000066001129921873     MYREI39ATELIERLLC       0107002310000408
6272410704174533071626       00000039001129921875     NCWCUSTOMFIREARMSLLC    0107002310000409
6270114000719246974368       00000199001129921879     ONESOURCEMECHANICALLLC  0107002310000410
627091000022104784198681     00000149001129921885     RESCUEINCSAFETYSPECIAL  0107002310000411
6272532780901710000851841    00000030001129921887     DREAMTEAMEXPRESSLLC     0107002310000412
6270631075133205293156       00000230001129921893     OVERTHESEACLEANINGSERV  0107002310000413
6271221057446700157979       00000135001129921895     ASIANWONGLLC            0107002310000414
6270611013750297624225       00000150001129921899     CLIFFORDWATSON          0107002310000415
627021000021695865706        00000031001129921903     ALIYAHHEALTH            0107002310000416
627044000037132566396        00000058001129921909     BEAUTYLEAKLIMITED       0107002310000417
6271113229947485825402       00000059001129921919     ROYALCWATERLLC          0107002310000418
6272420766011010000143257    00000104001129921921     THEWEBANDMARKETINGBURE  0107002310000419
6271119006593702734629       00000063001129921923     SILVERADOLOGISTICSLLC   0107002310000420
6272560749747092482343       00000164001129921925     LENAMAESFOODTRUCKLLC    0107002310000421
6272560749747113496421       00000138001129921931     BOSSYGLAMWORKSLLC       0107002310000422
627322271627950535950        00000318001129921933     RDCSSERVICEINC          0107002310000423
6270654036260272935839       00000138001129921935     GRAY39STAXEXPRESSLLC    0107002310000424
6270260136734276928161       00000039001129921939     TOWONLSTEWART           0107002310000425
627061092387586065572        00000069001129921949     EXCLUSIVEDESIGNLLC      0107002310000426
6270631075137300861668       00000055001129921951     ASAPETROLEUMSERVICELLC  0107002310000427
6272532784011380098713       00000075001129921953     ONEMORECHANCESCUBALLC   0107002310000428
627264279350109743064        00000318001129921955     JOHNSONCITYHEATINGAIRI  0107002310000429
6270759119885551716698       00000207001129921957     UNITEDTRANSPORTSERVICE  0107002310000430
6270631021521000171953432    00000189001129921959     PENNINGTONGRAYLLC       0107002310000431
6270610001041000245312466    00000318001129921961     ARIAMCMLLC              0107002310000432
627122101706457043274970     00000059001129921963     GOLDWIREINSTALLATIONSL  0107002310000433
627072000805375022956838     00000317021129921969     THEBUTTERFLYLOUNGELLC   0107002310000434
6273212707423734623618       00000079001129921971     ARTISTRYBYANGELOLLC     0107002310000435
6272631908127930315499       00000168001129921973     JEWLOGISTICSLLC         0107002310000436
627051000017435047561465     00000045001129921979     JASONMICHAELDOUGHERTY   0107002310000437
6270829008720018341696       00000230001129921981     JEREMYOWENSENTERPRISES  0107002310000438
627063100277229058205735     00000149001129921983     JJDITRUCKINGLLC         0107002310000439
6272560749747096023994       00000099001129921989     FLATRATE                0107002310000440
627063000047898121541485     00000050001129921991     DOCTORFIXLLC            0107002310000441
6270410001244146571488       00000126001129921993     TEAMMOTORGROUPLLC       0107002310000442
6272560749747108505103       00000082001129921995     NICKSTRANSPORTLLC       0107002310000443
627075000019588059375        00000030001129921997     GUMBASRESTAURANTGROUPI  0107002310000444
627082900432133988319        00000740001129921999     LLWALLACELLC            0107002310000445
62726227595811000005415259   00000129001129922001     ONDEMANDESSENTIALSINC   0107002310000446
62725507783311600003223777   00000039001129922005     CRUISERAUTOREPAIRLLC    0107002310000447
627123000220153667102229     00000029001129922009     CHRISTOPHERMCDONALDFLO  0107002310000448
627053000196237043592539     00000118001129922011     MAKINACLEANSWEEPLLC     0107002310000449
6271130249153027073939       00000138001129922013     KENDRICKLLYONS          0107002310000450
627072000326807650809        00000136001129922015     FOLEYPLEXLLC            0107002310000451
627064008637800106384399     00000340001129922019     BELLINCORPORATED        0107002310000452
627072000326773535732        00000138001129922021     CGRTRANSPORTATIONLLC    0107002310000453
6270640000170157386439       00000129001129922025     JOLIEHAIRSTUDIOS        0107002310000454
6270422021967934517983       00000045001129922027     JFORDLOGISTICSLLC       0107002310000455
6270910000196544266387       00000210001129922029     CRUZENTERPRISESLLC      0107002310000456
627113000023488084303727     00000108651129922031     WEIRDAUDIOLLC           0107002310000457
627061100606116923           00000138001129922035     LASERSPORTINGOFGEORGIA  0107002310000458
6272560749747091239454       00000149001129922037     FOUCHESMITH             0107002310000459
62708290087234370065         00000082001129922059     STILLWATERSCONSULTINGG  0107002310000460
6270739005770026896931       00000125001129922067     AFFORDABLEEXTERIORSLLC  0107002310000461
6270610002278742310769       00000055481129922071     DIAMONDCLASSTRANSPORTA  0107002310000462
627121000358325080151845     00000200001129922075     STATEPROPAINTINGINC     0107002310000463
627211372857703200185        00000158511129922079     JIMSONSOILCOMPANY       0107002310000464
627086300012116817756        00000059001129922087     BRIGHTERBEGINNINGSCHIL  0107002310000465
627063000047898092476414     00000318001129922091     XTREMEMULTISERVICESLLC  0107002310000466
62732417017939010692         00000066001129922093     JAMIEHICKS              0107002310000467
627253177832400049327706     00000069001129922099     DALLASTRUCKINGLLC       0107002310000468
627091302966304142926852     00000069001129922105     SHEALYNFLEMING          0107002310000469
627064000059151207681603     00000061001129922113     RAYMONDLMANCINIDBAXTRE  0107002310000470
6270710256614830885793       00000375001129922119     TRANSCARESERVICESINC    0107002310000471
6270312013604273321152       00000089081129922167     GPAUTOMOTIVELIMITEDLIA  0107002310000472
627322271627635286831        00000119001129922169     OLMEDOBROSTRUCKINGLLC   0107002310000473
6271119113213640663          00000086001129922183     IMYLORCONSULTINGLLC     0107002310000474
6270530002199985681866       00000069001129922185     JELEWISJRTRUCKINGLLC    0107002310000475
627103000648660185700        00000079001129922201     DIRTYDUCTTALESLLC       0107002310000476
627123103716139103814145     00000056001129922213     OPULENTENTERPRISESLLC   0107002310000477
627052001633446047471654     00000224001129922217     WALEINVESTMENTSLLC      0107002310000478
6271040008540590614          00000050001129922227     DONISCORPINC            0107002310000479
6270640037688499066291       00000149001129922231     NEXTLEVELTRANSPORTLLC   0107002310000480
6270640000170093423209       00000149001129922243     BIOGENICSINC            0107002310000481
627064000020444024533957     00000149001129922249     SAMUELADELOWO           0107002310000482
627125000024138110782876     00000054891129922261     STYLELOUNGELLC          0107002310000483
6271119006599339566219       00000029001129922265     USXPRESSFREIGHTLLC      0107002310000484
627051000017435037808730     00000049001129922273     AJAYSCLEANINGSERVICESL  0107002310000485
6270631046680281059531       00000109001129922277     MICHAELTRAVISHAYES      0107002310000486
627021000021627707919        00000129001129922291     ALLSEASEAFOODEATERYINC  0107002310000487
6270539021974373395312       00000099001129922299     EUROMOBILEAUTOREPAIRLL  0107002310000488
627083000137680194963        00000079001129922303     CRIMINALOFFENDERSLEGAL  0107002310000489
627063100277898119921253     00000149001129922315     DSPARKLEBODYRHLLC       0107002310000490
6271221052788092766586       00000157281129922323     LAMONMEANSTRUCKINGLLC   0107002310000491
627051000017435042603111     00000082001129922327     MAXWELLJONES            0107002310000492
627063100277898108689014     00000317021129922335     EKFREIGHTSERVICESLLC    0107002310000493
6271031021065038014          00000079001129922341     GUARDIANCONSTRUCTIONGR  0107002310000494
6272631779038100009481177    00000049001129922343     VERNONSCARIBBEANCUISIN  0107002310000495
627081506552825689           00000163001129922347     BECKCONCRETESERVICELLC  0107002310000496
627072000326653978277        00000168681129922351     MCTRUCKINGFREIGHTLLC    0107002310000497
627267084131000000880365903  00000049001129922359     CMLAWNSERVICEINC        0107002310000498
627267084131578537620        00000140001129922363     FOURSHORESERVICESLLC    0107002310000499
627111000025488084256706     00000089001129922371     BENSAUTOBODYREPAIRLLC   0107002310000500
627031101279875101107394     00000119001129922375     RCANETWORKSINC          0107002310000501
627063000047898118083422     00000079001129922385     LDMJRLLC                0107002310000502
6272412708191000044432       00000118001129922393     BUCKEYEEQUESTRIANEVENT  0107002310000503
62711499410920107397         00000149001129922405     JKRANCHSOLUTIONSLLC     0107002310000504
6271021065692200002176234    00000039001129922427     CRTRUCKINGLLC           0107002310000505
6270610002275619004061       00000059001129922441     BELLECHEVEUXEXTENSIONS  0107002310000506
6270642081651430001175007    00000050001129922449     MONTEONDJONES           0107002310000507
627063100277898118157235     00000120001129922453     ROLLINSRELIABLETRUCKIN  0107002310000508
6270631075137989797084       00000070001129922459     WINGNUTSMOBILEMASTERME  0107002310000509
6270620000190171868887       00000040001129922463     QJBENTERPRISESLLC       0107002310000510
6272560749747070744573       00000059001129922467     BEEPHOTOGRAPHYLLC       0107002310000511
6271149248101010406298       00000025001129922475     SAMUELRENERAMOSJR       0107002310000512
627323383378800006782807     00000120001129922479     JOHNNYSPREMIERLAWNSERV  0107002310000513
627121000358325137840724     00000354761129922483     JEETTRANSPORTLLC        0107002310000514
627111000025488088432720     00000049001129922489     LEIGHDARNELL            0107002310000515
6271110143258097070338       00000120621129922497     WHIMSYWEDDINGSANDEVENT  0107002310000516
6270654001530062411555       00000110001129922501     LGITRANSPORTLLC         0107002310000517
6270631075131511961854       00000069001129922511     DANIELSLOGISTICSLLC     0107002310000518
6272211721866500740449       00000219001129922521     COMMUNITYACTIONPERFORM  0107002310000519
6270631075135268382347       00000049001129922533     AESESHIGHINC            0107002310000520
627065400137706585731        00000063001129922553     MMGCONCEPTSLLC          0107002310000521
6270210000896795200379       00000129001129922563     FIRSTDACIACORPORATION   0107002310000522
6272560749747115096088       00000038801129922571     NULYFEGROUPINC          0107002310000523
6273111750931387646202       00000069001129922577     TINY39SSHOPANDMORELLC   0107002310000524
62732217244111067941         00000069001129922581     ALCHEMYAPOTHECARY       0107002310000525
627061000052334044873529     00000010001129922585     JBMLOGISTICSINC         0107002310000526
627071000013638806791        00000075001129922593     NSXINCORPORATED         0107002310000527
627011000138466007579398     00000090001129922599     MAYNOUR360TRANSLLC      0107002310000528
627021200339381047061899     00000125001129922603     ALLWAYSFORWARDTRANSPOR  0107002310000529
6270212000252244181034       00000060001129922609     ONTHEMONEYCLEANINGLLC   0107002310000530
627111000614398802725        00000059001129922621     LOWERYCONSULTINGGROUPL  0107002310000531
627021001088514015675        00000318001129922629     FABRICCONCEPTSFORINDUS  0107002310000532
6270540000305426387639       00000168231129922633     SIERRABROWN             0107002310000533
627253177832400052901208     00000100001129922641     EJSIDINGLLC             0107002310000534
62704121503201059708909      00000109001129922661     KELLINAGY               0107002310000535
6270910000191118525995       00000058001129922669     GENERALRECREATIONANDMA  0107002310000536
6270434000360502026622       00000298001129922683     LOTSOFHEARTSHOMECARELL  0107002310000537
6271119006593333852451       00000297001129922689     DANNYEMCINTYREJR        0107002310000538
6272560749747097071422       00000069001129922715     HARVEYLOGISTICSLLC      0107002310000539
6270820001090271157476       00000059001129922725     LOSTBOYSTHERMOLOGISTIC  0107002310000540
627063000047898095724325     00000150001129922729     BAYSOUTHCONSTRUCTIONLL  0107002310000541
627021200339381052667233     00000057001129922733     KEEPINGYOUSWEETLLC      0107002310000542
627071000013393573990        00000049001129922741     NEVERLATEENTERPRISESLL  0107002310000543
6270631021521000261709199    00000069001129922767     CAPRITRANSPORTATIONLLC  0107002310000544
6271119006596071666504       00000079001129922769     RANCHERSMEATSINCORPORA  0107002310000545
6270213131034018965345       00000105001129922783     CASTLECIGARSLLC         0107002310000546
627051000017435045702954     00000069001129922791     BAXTERSAFEHOMESLLC      0107002310000547
6272560749747110603714       00000131001129922793     THEREALBOSSLADYOFTRANS  0107002310000548
627071000013597302972        00000079001129922797     GRUPPOD39OROINCORPORAT  0107002310000549
6272313726919531395330       00000076021129922801     POWELLRENOVATIONSLLC    0107002310000550
627113024588582187142        00000069001129922803     TYLLAHCHANELHAMPTON     0107002310000551
6270830001083043037624       00000189001129922805     TRANSEAGLELOGISTICGROU  0107002310000552
6271119006593388908935       00000069001129922807     TANIAGDELAFUENTEBARRIO  0107002310000553
6270913007192500022641       00000189001129922811     JWOILFIELDSERVICESLLC   0107002310000554
62705220222511260478         00000088121129922815     ARONFIELDAGENCYLLC      0107002310000555
627053000196237042849128     00000073001129922817     CROSSPOINTTRANSPORTLLC  0107002310000556
627073000176445002919204     00000079001129922829     JRMASSOCIATES           0107002310000557
627021200339381056422704     00000169001129922831     TBTFITNESSSTUDIOSLLC    0107002310000558
6270631075133505470421       00000149001129922833     JDJTRUCKINGCOMPANYLLC   0107002310000559
6270670148224375603771       00000059001129922835     ONESTOPTRASHVALETSERVI  0107002310000560
627121000358325120414853     00000108001129922839     JIKODESIGN              0107002310000561
627322271627670070660        00000089001129922841     KINGFAMILYORGANIZATION  0107002310000562
627074000010237339798        00000055001129922843     KENNETHCHRISTOPHERMORR  0107002310000563
627063100277898090586885     00000059001129922845     ALLINBARBERSHOPINC      0107002310000564
62704121501601472854896      00000132001129922847     FIRSTLIGHTCONSULTINGLL  0107002310000565
6270310005039240822669       00000298001129922849     CBCLEANINGSJANITORIALS  0107002310000566
627267084131152035975        00000129001129922853     GGBEAUTYUNISEXINC       0107002310000567
627075000022182379253178     00000045001129922859     CWREMODELINGLLC         0107002310000568
627121000358325101158578     00000109001129922861     MICHAELACHEESE          0107002310000569
6272560749747103849571       00000189001129922863     HIGHLEVELTRANSPORTATIO  0107002310000570
6272560749747088111559       00000049001129922865     TAMIKANBRYANT           0107002310000571
6272560749747113092543       00000099001129922919     EXQUISITECOIFFURESHAIR  0107002310000572
6272560749747076451223       00000074001129922965     SUTTONGLOBALLLC         0107002310000573
6271110143252010025094       00000059001129922975     BRANDONDENSON           0107002310000574
62731318551500927798066      00000030001129922983     KEULEMANSEDUCATIONLLC   0107002310000575
627267084131689700315        00000069001129922985     LNASSOCIATESLLC         0107002310000576
6270112014589292012          00000095001129922987     MORGANAGALLIONE         0107002310000577
6272560749747112022699       00000119001129922989     MEQEXPRESSLLC           0107002310000578
6273011800985264915          00000079001129922991     ADVENTURESPORTSINC      0107002310000579
6273163868031110000040073    00000040001129922995     DENNISBROBERSON         0107002310000580
6270312013604382615991       00000109001129922997     THATCLEANINGSOLUTIONSL  0107002310000581
6270260128818818028477       00000079001129922999     PELOGISTICSLLC          0107002310000582
6272560749747112934398       00000059001129923001     GETITRIGHTCONSTRUCTION  0107002310000583
6272660865549146535982       00000059001129923003     JALFREDTAXMULTISERVICE  0107002310000584
627063100277229030770411     00000373001129923009     RMQCORP                 0107002310000585
62722137982412489002399630   00000049001129923011     ANTHONYJGIRGENTI        0107002310000586
627267084131631502116        00000069001129923013     SAWGRASSAIRPORTTRANSPO  0107002310000587
6270530002196314683811       00000059001129923015     WHITTEDFREIGHTANDLOGIS  0107002310000588
627021202337739645411        00000149001129923035     TOPLEVELLOGISTICSLLC    0107002310000589
6271119006596180416551       00000036001129923039     THOMASTRANSPORTATIONIN  0107002310000590
6273131875713231229554       00000224001129923041     JAMALTRUCKING           0107002310000591
6270540000305366584306       00000075001129923043     ALEXHINESLLC            0107002310000592
627053904483223024689815     00000040001129923045     MOBILETECHROADSIDEGENE  0107002310000593
627022000020841034346        00000049001129923047     LAKESIANJOHNSON         0107002310000594
627281081877920556812        00000105001129923049     RYDERPROPERTIESLLC      0107002310000595
6270441158091483003149       00000059001129923051     BUCKGUYLLC              0107002310000596
6270720000961853502258       00000095001129923053     ULTAMUTTINC             0107002310000597
627122400724501025142345     00000059001129923059     SHOGUNIMPERIALINVESTME  0107002310000598
62708290087230134357         00000049001129923061     ALLHANDSONCONSTRUCTION  0107002310000599
6273149728538108165153       00000157001129923069     BROWNTRANSPORTATIONAND  0107002310000600
62704331809296619803         00000050001129923073     MARKBUSACK              0107002310000601
627061000052334058009937     00000069001129923075     ALLABOUTKIDDSLEARNINGC  0107002310000602
627044000037669110386        00000039001129923077     EXTRAORDINAIRENATIONWI  0107002310000603
62703117611036113373836      00000079001129923079     MUSUKAIKAI              0107002310000604
6271119006599275250158       00000054891129923081     JAMESSONSTRUCKINGLLC    0107002310000605
627081904808291026701532     00000100001129923083     SHADONJINC              0107002310000606
6270531035851731008297       00000119001129923085     PKLEARNINGCENTERLLC     0107002310000607
627231175759043714683        00000079001129923087     PAULDCAIN               0107002310000608
62704331809296944474         00000059001129923091     CHADSTINSON             0107002310000609
6270929052787788986649       00000099001129923093     LISAMISCHKE             0107002310000610
6270530002195753327401       00000290001129923097     BROCKLOGISTICLLC        0107002310000611
6270550032980200351419       00000129001129923101     PUNCHOUTSPEACIALISTTEA  0107002310000612
6271210428823854328014       00000083001129923103     JOSEDORELLANA           0107002310000613
627061000052334065106098     00000189001129923107     TRUEPOTENTIALFINANCIAL  0107002310000614
627021000021329115270        00000110001129923109     OLIVEBOUTIQUEINC        0107002310000615
6271221052782026498275       00000198001129923111     ARIZONASCREENPRINTINGE  0107002310000616
6272631779038100010010197    00000119001129923113     SECUREPAYSERVICELLC     0107002310000617
6270531011211340017224076    00000169001129923125     CBCOMMUNICATIONSLLC     0107002310000618
6272670841991235559524       00000116001129923137     BLAKE39STRANSPORTDELIV  0107002310000619
627122100024525352222        00001065001129923139     DBSTEAKHOUSELLC         0107002310000620
627267084131622578778        00000230001129923141     THRIVECONSULTINGGROUPL  0107002310000621
627081000032355007551786     00000181001129923145     HEAVENLYLLC             0107002310000622
627111000614615127930        00000089001129923147     RRLOGISTICSTRANSPORTLL  0107002310000623
6270640037687321844982       00000049001129923149     MCSATHEGROUPCORP        0107002310000624
627111000614656513717        00000149001129923151     OUTBRAININC             0107002310000625
6270260136734368918632       00000095001129923155     BYRONDELIGROCERY        0107002310000626
6270719239097241837462       00000049001129923157     BENJAMINCHASERLLC       0107002310000627
627074000010000000198957182  00000179001129923163     TOMMIEPERKINS           0107002310000628
6271130084651756001770       00000069001129923165     CEDRICWASHINGTON        0107002310000629
6270622062957100037477       00000254001129923167     BRANDONADAMDAVIDSON     0107002310000630
6272719728990100153007       00000099001129923169     CYNTHIAEFLEMING         0107002310000631
6270610001041000259280377    00000059001129923171     BRCREPAIRCENTEREXPRESS  0107002310000632
6270611006061012073878       00000159001129923173     IMPERIUMCLEANINGINC     0107002310000633
627322271627559601296        00000049001129923175     FIYAHNESIANCUISINELLC   0107002310000634
6270650000907528139269       00000025001129923179     CAPITALVIRTUESLLC       0107002310000635
6271221057446776685206       00000169001129923183     DESERTOXIFRESHLLC       0107002310000636
62726418162610501210388349   00000189001129923185     RSCTRANSPORTLLC         0107002310000637
627113000023586037907904     00000149001129923189     RELITORININTERNATIONAL  0107002310000638
627123103716139104036443     00000059001129923191     SMOKERSEMPORIUMLLC      0107002310000639
627053202871211108311        00000094001129923193     MADISONEXPRESSLLC       0107002310000640
627241071212070300176800     00000210001129923195     LAKEERIEHOCKEYLLC       0107002310000641
6270611134151110008304649    00000099001129923197     TIDWELLTRUCKINGLLC      0107002310000642
6272313726918161043876       00000059001129923199     FITBYDESIGNTRAININGSTU  0107002310000643
6270260136734375434845       00000095001129923201     BROOKSMEDICALPC         0107002310000644
6270650000902082818923       00000129001129923203     RANDYSAUTOSERVICELLC    0107002310000645
627322271627675055757        00000089001129923213     OTTOANDGRANDSON39SLLC   0107002310000646
627053100300004771124819     00000049001129923223     SUSANDSEAY              0107002310000647
6272654734851700000442943    00000118001129923229     CHARLOTTRUCKINGLLC      0107002310000648
6270410001244156112058       00000118001129923233     AMROOFINGANDSIDINGLLC   0107002310000649
6270214079127057502416       00000092001129923241     EMPYRE9LLC              0107002310000650
6270612117280256208502       00000055001129923243     TAMMYLEBLANC            0107002310000651
6270531125921810001402       00000207001129923245     FINLEYTRANSPORTATIONLL  0107002310000652
6271119052274147170          00000118001129923247     WOODBROTHERSCONSTRUCTI  0107002310000653
627061000052334063597512     00000229001129923249     ATEAMELECTRICLLC        0107002310000654
6270313000129013063669       00000149001129923251     ELAINEWILLIAMS          0107002310000655
6272865733222609001386       00000149001129923255     BAILEYENTERPRISELLC     0107002310000656
627103100195248148330827     00000099001129923259     PATRICKBECK             0107002310000657
6271130084651710002526       00000300001129923261     EXTREMECHARTERSOLUTION  0107002310000658
627065400137539500311        00000049001129923263     EBONY39SBEAUTYHAIRSKIN  0107002310000659
6270540000305365026505       00000135001129923265     THEGROOMINGCOTTAGELLC   0107002310000660
6270610002278766634532       00000079001129923269     MASONEXPRESSLLC         0107002310000661
6270531125921243309232       00000059001129923271     AUNTBRENDA39SKITCHENLL  0107002310000662
6272631913870000247622055    00000049001129923273     JRZWIRELESSINC          0107002310000663
627124302150153153186272     00000109001129923287     MTNVWCONSULTINGLLC      0107002310000664
6270530002197371828174       00000138001129923311     HALLCOSOLUTIONSLLC      0107002310000665
6270612035580133894706       00000092001129923317     WILLIAMCLIVELY          0107002310000666
627122400724501025170061     00000063001129923327     TRAINERSBARBERSHOPLLC   0107002310000667
627281081877920548622        00000138001129923335     SFCRLLC                 0107002310000668
6273149728538004160506       00000100001129923341     MARKCUSDAVIS            0107002310000669
627103000017305006069177     00000228001129923351     MATTHEWTIDWELL          0107002310000670
627031202084383019062235     00000039001129923353     OFFICIALENTERTAINMENTI  0107002310000671
6270631075131792336628       00000079001129923359     FNADTRUCKINGLLC         0107002310000672
6270612017542048766311       00000089001129923363     JHWTRUCKINGLLC          0107002310000673
6272211721866500974197       00000199201129923369     KATHRYNWSALONLLC        0107002310000674
6270550027071000245256135    00000109001129923373     KINGLANSCAPINGTRUCKING  0107002310000675
627121000358325137260485     00000039001129923379     ALISALEH                0107002310000676
6270260128811311364317       00000149001129923383     PRESTIGIOUSCOURIERSINC  0107002310000677
627123103716139103897337     00000063001129923397     ROYALGOLDENTRUCKINGLLC  0107002310000678
6271111013061038117          00000129001129923405     STEVENBOOKER            0107002310000679
6270913106152110004656       00000059001129923413     REEVESOILFIELDTRANSPOR  0107002310000680
6272560749747080761294       00000049001129923429     NEALASSOCIATES          0107002310000681
6273149784460230092033       00000109001129923433     JAMESADECKERJR          0107002310000682
6270724000527933742962       00000143001129923435     LINHCORPORATION         0107002310000683
627111000025488090186284     00000219001129923441     CSREFRIGERATIONSERVICE  0107002310000684
6271119006596180416551       00000049001129923445     THOMASTRANSPORTATIONIN  0107002310000685
6271149024059380767          00000133001129923453     TRIPLEGSERVICESLLC      0107002310000686
6270610002278895786096       00000029001129923457     PETE39SAUTOMOTIVESOLUT  0107002310000687
6270620000190299164892       00000109001129923465     MSQUAREDCONSTRUCTIONHO  0107002310000688
6271119006597998896091       00000270001129923469     DOWNRIGHTSOLUTIONSLLC   0107002310000689
627061191848004807030205     00000149001129923473     REIGNDOWNINC            0107002310000690
62708300131453518713         00000318001129923477     GEORGEILNICK            0107002310000691
627071000505291026608703     00000199001129923485     NEVERWITHOUTLLC         0107002310000692
6270214079127528935664       00000247001129923489     RALPHPLUMBINGHEATINGIN  0107002310000693
627322271627716915710        00000050001129923495     ROBERTHCABRALJR         0107002310000694
6271030036320385045704       00000119001129923505     BRIANSWELDINGCONSTRUCT  0107002310000695
6271130105476788130854       00000284001129923507     R2JTRANSPORTLLC         0107002310000696
6272550719811361424100       00000119001129923515     DOCTRANSPORTSERVICELLC  0107002310000697
6270360761506315505000       00000209001129923519     RCFOODMARKETINC         0107002310000698
627061000052334062850029     00000109001129923531     HIAHAULITALLLLC         0107002310000699
6271221052787014290279       00000089001129923541     NARDYTOSSOULLC          0107002310000700
6271210428828219824372       00000059001129923543     ADEOLAOADEDAYO          0107002310000701
6270711046925022126          00000075001129923547     WILEYTRUCKINGLLC        0107002310000702
62727598280140120453358      00000642001129923551     88EVENTSLLC             0107002310000703
6270312047101310003455133    00000238001129923565     DEROSEGARDENLANDSCAPES  0107002310000704
627021202337865879514        00000105001129923575     BROADSTAUTOREPAIRLLC    0107002310000705
6270631075136424171335       00000138001129923587     EPOCACOFFEECORP         0107002310000706
627021200339381055434612     00000149001129923591     SPREALTYINVESTMENTSLLC  0107002310000707
62707240347301153547448      00000077001129923597     PCHFAMILYTRUCKINGLLC    0107002310000708
627063100277229058033415     00000045001129923599     EDTHEBARBERSSHOPINC     0107002310000709
6270650000902082793408       00000049001129923613     CREHANCONSTRUCTIONLLC   0107002310000710
6272560749747105363738       00000069001129923615     JENOAWILLIAMS           0107002310000711
62708290087214173127         00000157001129923623     TTMAIDSOFCLEANINGLLC    0107002310000712
6270312076078133165809       00000059001129923631     KLSTRUCKINGDELIVERYSER  0107002310000713
6270631075138337136405       00000027001129923635     HUNTINSTALLATIONS       0107002310000714
627011500010394009287763     00000069001129923637     BECKIWITHTHEGOODHAIRLL  0107002310000715
627322271627599977233        00000129001129923641     ANTHONYCHOUSE           0107002310000716
627267084131575997017        00000059001129923643     LEGENDARYLCREATIONSLLC  0107002310000717
627122101706457039891370     00000092001129923649     INTEGRITYCLEANING1LLC   0107002310000718
62710310452861069574         00000116001129923659     HEAVENLYLIGHTHOUSEINDU  0107002310000719
62726318203712000000182212   00000221001129923661     WEEKENDWARRIORLANDSCAP  0107002310000720
6272560749747111033614       00000039001129923665     CHEFHARTLEYLLC          0107002310000721
6270540000305342926519       00000175001129923667     YOUNGYJLLC              0107002310000722
6270610002273831605971       00000194001129923669     HQTRANSPORTATIONLLC     0107002310000723
6273070842111213640028       00000149001129923671     HERMANSAUTOMOTIVE       0107002310000724
627021202337564881149        00000115001129923681     AHDEQUITYLLC            0107002310000725
6270540017254357513477       00001309001129923685     FURNITUREEXPERTSCORP    0107002310000726
6270611013750270970696       00000050001129923689     METOURSLLC              0107002310000727
6270610002277201136418       00000050001129923691     MANWITHVISIONTRUCKINGL  0107002310000728
6270829085734418497          00000142001129923693     TTOWNNUTRITIONLLC       0107002310000729
627021202337379315010        00000230001129923695     CHAGUTRANSPORTATIONLLC  0107002310000730
627111000025488087958917     00000135001129923697     ALGENISBELLOHEREDIA     0107002310000731
627071000013397308393        00000039001129923699     ROYALBLOODLINECHAUFFEU  0107002310000732
6270531011211340010111292    00000069001129923701     MERENDA39SKITCHENLLC    0107002310000733
627061092387632115397        00000522001129923703     DIXONFIRSTCLASSLLC      0107002310000734
6271130084654473484          00000068001129923707     PATRICIAWRIGHT          0107002310000735
6270620000190297752428       00000087001129923711     GREATERMOBILETRANSPORT  0107002310000736
627053904483223027206839     00000149001129923719     PRECISIONTRANSPORTEXPR  0107002310000737
6270865006051080000698200    00000051001129923721     RENEWPOWERMARKETINGLLC  0107002310000738
627071904779199377967351     00000189001129923725     ITASCAAUTOMOTIVEREPAIR  0107002310000739
6270620000190209402268       00000149001129923727     JAYLONHICKMAN           0107002310000740
6270313000129025058007       00000373001129923729     VANNALLC                0107002310000741
6272560749747098817310       00000069001129923731     VITANOVABIRTHINGLLC     0107002310000742
6270220000469874921944       00000125001129923733     BERNARDOMSCHIFANO       0107002310000743
627072000805375021276988     00000063001129923737     PLNZTRANSPORT           0107002310000744
6272560749747089717339       00000109001129923741     SUKISUKILLC             0107002310000745
62710230045910318350         00000119001129923745     LIL39TIFFANY39SSPALLC   0107002310000746
6271222382001000028199       00000189001129923747     WILLIEJSTEEL            0107002310000747
6272560749747097139880       00000085001129923751     FISLERCONSTRUCTIONINC   0107002310000748
6270610002273270233608       00000138001129923753     BRADLEYFARMSLLC         0107002310000749
62708101916201127779         00000146001129923757     GATEWAYINGREENLLC       0107002310000750
6271130105476793004247       00000118001129923759     GENESISROADFLEETSERVIC  0107002310000751
6271023010923702229489       00000105001129923763     ROCKPILEENTERPRISESLCC  0107002310000752
6270654036260258740317       00000149001129923765     UYENDINH                0107002310000753
627092902297141054           00000119001129923769     BRANDONJCLOUSE          0107002310000754
627053906041009163598685     00000109001129923773     ODOMSTRANSPORTLLC       0107002310000755
6270670051584747000031       00000149001129923775     WILDOAKHOLDINGINC       0107002310000756
627121000358325098421091     00000259001129923777     GALLEGOSRESTAURANTINC   0107002310000757
6270812225930020051546       00000079001129923781     ROBERTNEWMAN            0107002310000758
62726527041320496246         00000069001129923783     BERNARDBEACONMARKETING  0107002310000759
6270631046680300037095       00000109001129923785     XTREMESOFTWASHINC       0107002310000760
6270631021521000174992668    00000125001129923793     WINETERTAINMENTLLC      0107002310000761
6270531125921956398620       00000029001129923795     MICHAELTAYLOR           0107002310000762
6270311008695915579311       00000059001129923801     HIGHDEFTRANSPORTATIONL  0107002310000763
6272560749747104906677       00000060001129923803     SAVEDBYGRACEENTERPRISE  0107002310000764
627114000093502310988        00000149001129923805     WILLOWWOODLEARNINGACAD  0107002310000765
6272560749747110747552       00000164001129923809     MKBCOMMUNITYLIVINGLLC   0107002310000766
6270711226618230292933       00000069001129923813     ROBERTROY               0107002310000767
627071000013633350555        00000059001129923823     BOSSCREATIONSLLC        0107002310000768
6270213036187009242125       00000065001129923825     JAMESCASTELLANO         0107002310000769
6270812068070030144469       00000040001129923827     DAYDREAMBOUTIQUE        0107002310000770
6270514005495201420196       00000059001129923831     VIRGINIACARDIOVASCULAR  0107002310000771
6270631046680282378533       00000099001129923835     JUSTINSCARIBBEANFUSION  0107002310000772
6272843838860020001103       00000035001129923839     VICTORIACLARK           0107002310000773
6271119007850291030927       00000119001129923843     JRPEXPRESSLLC           0107002310000774
6270260128819986982214       00000109001129923847     NONNASRESTAURANTANDPIZ  0107002310000775
6270631046680289195906       00000063001129923849     MERIDIANEXPORTSINC      0107002310000776
6271130105476750170305       00000089001129923853     CHARLOTARUTHCARTWRIGHT  0107002310000777
62722197223499281687         00000107001129923855     EREGOTRUCKINGLLC        0107002310000778
627021000021201138772        00000198001129923859     MARTENEROINC            0107002310000779
627063100277229053908969     00000039001129923861     MYWORLDTRUCKINLLC       0107002310000780
6270433068267802692603       00000126001129923865     PREMIERGUTTERGUARDANDC  0107002310000781
6272560749747112836163       00000175001129923877     KENRELLLLC              0107002310000782
62729188033020053034         00000118001129923885     KILCOYNESNORTHWOODSANT  0107002310000783
6271221874452031059252       00000069001129923889     MAIDINANTHEMLLC         0107002310000784
627021000021739687892        00000039001129923891     WONOLOINC               0107002310000785
6270540000305425934098       00000067001129923893     CREDITHEROESLLC         0107002310000786
627044000037672625859        00000059001129923895     CLOSETCLELLC            0107002310000787
6270841067689800741746       00000318001129923897     DIGITALPROSPERITYLLC    0107002310000788
627021000021427671743        00000109001129923899     ELEVATEDCULTURELLC      0107002310000789
6272313726919531992169       00000119001129923901     BROOKLYNMARKETINGGROUP  0107002310000790
627071000013593115956        00000204001129923905     THESPACESHIPRECORDINGC  0107002310000791
627053000196237041725036     00000029001129923907     CCAASSOCIATESLLC        0107002310000792
627111000025488094640344     00000109001129923913     MAVELTRUCKINGLLC        0107002310000793
6270610002275365601995       00000060001129923915     BLESSEDTOUCHLLC         0107002310000794
627021000021380378015        00000061001129923917     UNIVERSALOOKINC         0107002310000795
627313185515926830316        00000145001129923919     GOATTRANSPORTATIONLLC   0107002310000796
627102000021103691628061     00000136001129923921     TIMBERLINECUSTOMBUILDE  0107002310000797
627051000017435043607048     00000149001129923927     ABSOLUTECONSTRUCTION    0107002310000798
627111000025488073564836     00000086001129923929     STEPHANIEMARINO         0107002310000799
627061092387632259708        00000049001129923931     LONDONLOADSLLC          0107002310000800
6270530002193936494701       00000035001129923937     NUERACREDITSOLUTIONSLL  0107002310000801
627122100024280511509        00000129001129923939     RIGOBERTOALONZO         0107002310000802
627044000037927758685        00000123001129923943     OLDAKER39SMECHANICALIN  0107002310000803
627021000322483088280252     00000050001129923947     ANNSTOCKEDLLC           0107002310000804
6270622062957100087662       00000142001129923949     LESLEYBATTLE            0107002310000805
6272211721866500118157       00000059001129923951     SCOREBOARDSCAFELLC      0107002310000806
627121000358325137647367     00000089001129923961     JOEGARCIA               0107002310000807
627111000614639211116        00000029001129923963     GEORGELAFUENTA          0107002310000808
627072000326537585835        00000169001129923965     BLACKSTARGLOBALCORPORA  0107002310000809
6270622065670200180826       00000049001129923969     RAWSUMBROSTIMBERCOINC   0107002310000810
627083000137587800050        00000207001129923987     QUINNFAMILYTRANSPORTAT  0107002310000811
627061000052334063340046     00000040001129923991     REHOBOTHPROFESSIONALHA  0107002310000812
627031202084383017792989     00000199001129923997     AMYJILLMILLER           0107002310000813
62703117611036087715292      00000049001129923999     DATGHETTOCOWBOYLLC      0107002310000814
6271119163261000705689       00000168001129924001     ASGARAGEDOORSERVICELLC  0107002310000815
627072000326286993511        00000049001129924003     GREYHAWKEENTERPRISESLL  0107002310000816
6270410001244151917797       00000096001129924007     CAPTAINHOOK39SPAINTING  0107002310000817
627021000021382800982        00001065001129924013     TRITONATLANTICCONSULTI  0107002310000818
627044000037855516105        00000063001129924025     TRINITYDESIGNANDCONSTR  0107002310000819
6271211448453771003799       00000175001129924049     DAVIDJANICELACROIX      0107002310000820
627111000025488060576497     00000059001129924051     BLACKANDBROWNJANITORIA  0107002310000821
6271130112585797972360       00000139001129924053     MAJESTICPALMSLANDSCAPI  0107002310000822
627021000322483079597844     00000298001129924057     CANTINABRANDINC         0107002310000823
627031101169319101019820     00000391001129924061     JAIMEGUYPERRY           0107002310000824
6270214079127057507798       00000599001129924063     LAKEVIEWSALESANDSERVIC  0107002310000825
6271119006592872923491       00000149001129924065     STONSELECTRICALSOLUTIO  0107002310000826
62704121503201050103639      00000059001129924069     BONNIEEWILKINSON        0107002310000827
6270631075138168555020       00000050001129924071     STEPHENCHASEENTERPRISE  0107002310000828
6270514005499029094258       00000249001129924073     CAINHUGHESPLUMBINGLLC   0107002310000829
6271113011224110156884       00000119001129924075     BILLYSWINEYJR           0107002310000830
6272630792767900232084       00000119001129924077     JAYSDRYWALLLLC          0107002310000831
6272550767538029431328       00000075001129924079     GENEVASTRUCKINGLANELLC  0107002310000832
627111000025488094780657     00000135001129924083     COOP39STRUCKINGLLC      0107002310000833
6272724818399200861624       00000139001129924087     IACTIVATESERVICELLC     0107002310000834
6271220002477875310828       00000087001129924095     MONTCODYSLOAN           0107002310000835
627324079555521010680675     00000190001129924097     EMPOWERINGFREEDOMSOLUT  0107002310000836
627121143781418044109        00000043001129924103     9AND40DINERLLC          0107002310000837
6270910000192737090874       00000079001129924105     IMANENTERPRISESLLC      0107002310000838
62701100013837327093         00000128001129924107     LESTEROPILA             0107002310000839
627121100782061632253        00000109001129924117     VCDRYWALLLLC            0107002310000840
6271130105476782139256       00000332001129924119     RICHIEANDCINDYJAYNESEN  0107002310000841
6270620000190270555834       00000129001129924123     ADMCSOLUTIONSLLC        0107002310000842
6273011781813716669          00000033001129924127     JESUSRLEYVA             0107002310000843
6271010892929328659116       00000270001129924131     GIPSONENTERPRISESLLC    0107002310000844
6272560749747101738016       00000025001129924133     GOODSPIRITSINHOMECARES  0107002310000845
6271210428821193201975       00000207001129924135     SEGURALPEZDELIVERYTRUC  0107002310000846
6270531011210005203039605    00000029001129924145     1LUVTRUCKINGLLC         0107002310000847
627111000614682884215        00000059001129924147     BLUELINEENTERPRISELLC   0107002310000848
6272313726919530145837       00000119001129924149     KBAKERTRANSPORTLLC      0107002310000849
6270654001530061367331       00000109001129924153     BEEPINC                 0107002310000850
6270631075139298179699       00000113001129924155     ALLHANDSCLEANINGLLC     0107002310000851
627044000037591772592        00000064001129924157     UNAILEDITREMODELINGAND  0107002310000852
6270631075132583530262       00000109001129924159     LEWISATYOURSERVICEINC   0107002310000853
627072000805375014596840     00000100001129924167     ROBINSONANDLEECLEANING  0107002310000854
627062203984127179964        00000050001129924169     CHAMPIONSRISELLC        0107002310000855
6272313726915461083528       00000120001129924171     PAULANGELO39SLANDSCAPE  0107002310000856
6271130105476774923274       00000189001129924173     AUTOMEDICROADSIDELLC    0107002310000857
6270829027570503541766       00000200001129924181     PREMIERCONSTRUCTIONAND  0107002310000858
6270612017542049188432       00000138001129924183     TONYRAYWALTERSTUCCOCON  0107002310000859
6270210000896799172133       00000059001129924187     JORDANBARBERSHOPINC     0107002310000860
6270719218914698006321       00000119001129924191     GLPLUSLLC               0107002310000861
6270863000417693584315       00000069001129924193     JUIICEDDREAMLLC         0107002310000862
627082902757503442623        00000075001129924199     MCSANFORDSFURNITUREINC  0107002310000863
627321170839404560270        00000197001129924203     ALLBAYBUILDERSINC       0107002310000864
6270640037686027812590       00000125001129924213     TIMELYTRANSPORTATIONIN  0107002310000865
6272630792767508233096       00000069001129924215     GOGETTASTRANSPORTLLC    0107002310000866
627071105002100071901        00000230001129924219     BRYVIAHOMESLLC          0107002310000867
627111000614577072660        00000089001129924221     BEAUTYBYUSLLC           0107002310000868
6271131027142568020          00000109001129924223     TRACYRBARTON            0107002310000869
627021000021000000680878003  00000059001129924225     ROBERTHANINGTON         0107002310000870
6270719081604474920          00000148001129924231     THEODOREWRIGHTJR        0107002310000871
627044000037620119862        00000049001129924233     ROTTINGHOUSETRUCKINGCO  0107002310000872
627114000093236467164        00000119001129924235     AAROADSIDESERVICESLLC   0107002310000873
6270829008720033031839       00000130001129924239     GHPANTINGANDSTAININGLL  0107002310000874
6272110701751329765971       00000079001129924241     THEPURPLEROOSTERCAFELL  0107002310000875
6270622064601013127          00000080001129924245     DROBYNENTERPRISES       0107002310000876
6272514804820009862552       00000089001129924249     DWMEDICALTRANSPORTLLC   0107002310000877
6270631046680295909559       00000059001129924255     INTERCARGASERVICESINC   0107002310000878
6272213704675202841179       00000050001129924257     JVHOMEPROPERTYLLC       0107002310000879
627111000025488086528746     00000049001129924259     ASSORTEDHATCOMPANYLLC   0107002310000880
627121000358325126918845     00000179001129924261     OGBURNTRANSPORTATIONLL  0107002310000881
6270213075594130241211       00000112001129924263     LAWRENCESSCHULTZ        0107002310000882
627111000614949429856        00000080001129924265     LONDYN39SSTUDIOSALONBO  0107002310000883
627111000614551395574        00000089001129924267     EAWSERVICESLLC          0107002310000884
6270540017254380814321       00000049001129924271     ASSUREREALESTATEINVEST  0107002310000885
6270719218914639228522       00000059001129924283     LITTLEBELIEVERSLEARNIN  0107002310000886
627052001633446039586625     00000099001129924291     RANDTECHNOLOGIESINC     0107002310000887
627021000322483082579736     00000318001129924299     TOPFREIGHTLLC           0107002310000888
627081904808291030318403     00000088001129924301     MWVTRUCKINGLLC          0107002310000889
627065400137511102912        00000049001129924303     HAPPYSNAPPYPAINTINGCOL  0107002310000890
627051000017435038351396     00000049001129924307     STANDINGTALLTRUCKINGLL  0107002310000891
62703117611036101610088      00000069001129924311     GERTRUDESMBUNGU         0107002310000892
627072000326672081939        00000149001129924315     HENRY39SPERFECTIONHOME  0107002310000893
6270631075137710280319       00000050001129924319     ANDONYLOGISTICSLLC      0107002310000894
6272560749747045102584       00000089001129924321     WORDOFMOUTHBARBERSHOPL  0107002310000895
62725148331110900000666429   00000049001129924323     ESSENTIALTREECARELLC    0107002310000896
627053904483223026522048     00000055001129924327     BASNIGHTTRUCKINGLLC     0107002310000897
6272560749747088700559       00000299001129924329     KBMLOGISTICSLLC         0107002310000898
6270610002271288941899       00000029001129924337     JOSEPHGOYDISH           0107002310000899
6271119006597430007307       00000055001129924341     HAUERWASCONSTRUCTIONAN  0107002310000900
6270531011211340008715113    00000059001129924343     PCWIZBIZLLC             0107002310000901
6270610002271550140113       00000447001129924345     SHOCKTHEORYDLVINC       0107002310000902
627056001066037109350        00000442001129924347     MAHFUZURKHAN            0107002310000903
6270631046680260407573       00000149001129924349     GATHERSEEKVINTIQUELLC   0107002310000904
627074908934501131           00000059001129924353     JENNIFERTRUMBO          0107002310000905
6272560749747101110158       00000149001129924355     THEGREAVESGROUPINC      0107002310000906
627111000025488085936614     00000039001129924357     MJATRANSPORTLLC         0107002310000907
6272214736529990763519       00000049001129924359     TMACRIDESINC            0107002310000908
6270759119887826562857       00000092001129924361     AMERICANPHOENIXTRANSPO  0107002310000909
627121100782064397169        00000071001129924363     CREWMAXLLC              0107002310000910
627061000052334061489456     00000111001129924365     JUNIORJRCONSTRUCTIONLL  0107002310000911
6271110007537005244517       00000149001129924367     BRANDIHASTINGS          0107002310000912
627065400137737711298        00000318001129924369     THEBESTHOMECONTRACTORS  0107002310000913
627072000326266296299        00000135001129924371     JOJOEXPRESSLLC          0107002310000914
6272612912470204602          00000050001129924377     OLSARGESMOKEONWHEELSLL  0107002310000915
6272560749747113253863       00000069001129924379     DETRICHPARRISH          0107002310000916
627071000013598782511        00000159001129924381     HALSEYCLEANINGANDLANDS  0107002310000917
627123103716139103593864     00000089001129924385     AAANBWALLACEINC         0107002310000918
6270433007386007640358       00000110001129924387     GULISEKENTERPRISESLLC   0107002310000919
6270653054360284523794       00000111001129924391     BOUJEEBODIESWELLNESSSP  0107002310000920
6271070014819203019316       00000099001129924393     BALLOUTATHLETICSLLC     0107002310000921
627053904483223026837704     00000059001129924395     RBLANDSCAPINGLLC        0107002310000922
6272560749747089213834       00000059001129924397     LATOYAPARKER            0107002310000923
6270530002193851422422       00000100001129924399     DREJOHNSONSONSTRUCKING  0107002310000924
627063100277898119151913     00000447001129924401     AQUATECHSCUBASCHOOLSLL  0107002310000925
6273252720211700049042951    00000089001129924403     LUCKEICECREAMLLC        0107002310000926
6270532077662860321237       00000163001129924407     JDODESIGNSINC           0107002310000927
62711190448011396968         00000700001129924409     DARRELLJROBERTSJR       0107002310000928
6270550032013174108914       00000087001129924411     RIDEOUTLLC              0107002310000929
6271210428823237285121       00000164001129924417     JONATHANWTERRYAH        0107002310000930
6270711013071189522046       00000059001129924419     LACYTRANSPORTLLC        0107002310000931
6271210428828754690843       00000140001129924421     NOELIAQUINONESLOERA     0107002310000932
627041001039350231019653     00000745001129924423     LUMPKIN39SELECTRONICSL  0107002310000933
6270550032016186339476       00000262001129924425     TKLSINC                 0107002310000934
627322271627229677166        00000307001129924427     DENALEIGHPEARSON        0107002310000935
6270631075138553256291       00000196001129924429     REGITRUCKINGLLC         0107002310000936
627061210965404001059        00000082001129924431     ROYZELLEBROWN           0107002310000937
6271210428827429276343       00000568001129924433     JORDANETTNER            0107002310000938
62708290163545179508         00000119001129924435     4DCONSTRUCTIONLLC       0107002310000939
627111000025488099000248     00000224001129924437     BEWILLIAMSJOHNSONINVES  0107002310000940
6271110007531883158204       00000077001129924443     MARCUSDFURLOUGH         0107002310000941
6270610002275135149861       00000189001129924449     FUTUREMORTGAGEANDINVES  0107002310000942
627031101279875101716160     00000039001129924451     DANIELLEYOUNGBLOOD      0107002310000943
6270210000896863950367       00000099001129924453     MUFFINFACTORY5CLLC      0107002310000944
6270631075133320905213       00000149001129924455     PREMIERQUALITYTRANSPOR  0107002310000945
627011200365458004822140     00000109001129924461     CONSTANDINALIVIZATOS    0107002310000946
6270640000170266055350       00001003001129924467     KAXXLLC                 0107002310000947
6270312013604376368598       00000069001129924469     506CAFEINC              0107002310000948
6270829072732188006965       00000318001129924471     ISLANDSCOOPSLLC         0107002310000949
6270653002797500046383       00000149001129924473     PRECIOUSCARELLC         0107002310000950
627052001633446046109260     00000045001129924477     KBKPEOPLESENTERPRISELL  0107002310000951
62703117611036096518552      00000099001129924479     TRINDINGZ               0107002310000952
62704400002401893682870      00000050001129924483     BARBETTEMPULLINS        0107002310000953
6270514005493653018956       00000894001129924487     VIRGINIATTANSPORTLLC    0107002310000954
6271119006597150802937       00000129001129924493     JACOBTOVAR              0107002310000955
627101100016131113           00000090001129924497     THOMASKKAUTZ            0107002310000956
6271251084051500053887       00000159001129924499     DLCTRUCKINGINC          0107002310000957
6272313868811000434454       00000125001129924501     JAMESHUGHESJR           0107002310000958
627253177832400052301656     00000109001129924505     JKATRUCKINGLLC          0107002310000959
627111000614531913080        00000110001129924509     SNAKEBITELLC            0107002310000960
6271031023681013111904       00000224001129924511     CORYMICHAELBREWER       0107002310000961
6271252000577641469320       00000109001129924513     SUZETTEVENNELLMARTIN    0107002310000962
6270540000305354827665       00000079001129924515     PAWSNCLAWSCOUTURE       0107002310000963
627111000025488092589287     00000174001129924517     MELTEDSOAPERYLLC        0107002310000964
627111000025488081846601     00000059001129924519     700CLUBHOUSECOMLLC      0107002310000965
6271213010280084908509       00000063001129924521     4DAFAMILY               0107002310000966
6271130105476789951215       00000195001129924523     MMAUDIOVIDEOLLC         0107002310000967
627051000017435045702954     00000100001129924527     BAXTERSAFEHOMESLLC      0107002310000968
627072000326587917656        00000055001129924529     SNATCHGANGJRACADEMYLLC  0107002310000969
627111000025488098494321     00000049001129924535     BEAUTIBYARILLC          0107002310000970
627065400137226019567        00000059001129924537     ROSLYNVLEWIS            0107002310000971
6270360018084384384198       00000119001129924539     FCFMECHANICALLLC        0107002310000972
627081904808291031569552     00000100001129924541     MENACEVISIONSMONEYLLC   0107002310000973
627121000358325049668816     00000349001129924543     BEAUFRESHMEDIALLC       0107002310000974
6270650000902082534353       00000043001129924545     YAM39SMOBILESOUNDACCES  0107002310000975
6270610002279251665221       00000050001129924547     HIIGHERBEINGSLLC        0107002310000976
6273140885721400001565724    00000081001129924549     HAMILTONVISTAAPARTMENT  0107002310000977
6272560749747094915456       00000135001129924551     DREAMHAIRCOLLECTIONLLC  0107002310000978
6270260128816850401974       00000079001129924553     CAPOCITYLLC             0107002310000979
6270719218914709192845       00000059001129924557     RICKYWAYNELUNA          0107002310000980
6272116911270920430006       00000089001129924563     BRIANEDWARDFORTIN       0107002310000981
6272560749747116560306       00000049001129924565     ANATURALWAYSHOPLLC      0107002310000982
6270540000305366464451       00000015001129924569     CARMENWAUGH             0107002310000983
6270410001244149365372       00000138001129924571     TERENCENEWELL           0107002310000984
6273212707428149113840       00000059001129924573     ELITEPSLLC              0107002310000985
627061191848009063252716     00000198001129924583     MOHAWKDELIVERYSERVICEL  0107002310000986
6272560749747110181471       00000059001129924587     LINCSTRANSPORTATIONSER  0107002310000987
627053104568781004020        00000318001129924589     TRICOUNTYEXCAVATINGLLC  0107002310000988
627114000093591877917        00000315001129924591     GOLDENKEYCONTRACTINGLL  0107002310000989
6270631046680208408963       00000175001129924593     THEALLEYSHOPPELLC       0107002310000990
627111000614658897779        00000224001129924597     RESIDUALEMPIRESLLC      0107002310000991
6270654036260291006546       00000049001129924599     PELLETIERCONSTRUCTIONL  0107002310000992
627065400137535068230        00000110001129924601     CARTERSHOMECOOKINGLLC   0107002310000993
627071000013459649245        00000204001129924605     JCLIQUIDTRANSPORTLLC    0107002310000994
6270441013051050106296171    00000049001129924607     BPENTERPRISELLC         0107002310000995
6272560749747102892606       00000069001129924609     COCOSBOLDCOLLECTIONLLC  0107002310000996
627122100024238681073        00000149001129924611     KETTEY39SINTERNATIONAL  0107002310000997
6272560749747108449070       00000191001129924613     DKSUPERIORLLC           0107002310000998
6270260136734334111658       00000189001129924615     MSRENOVATORSINC         0107002310000999
6271119007850301593404       00000090001129924621     BLACKROSETRANSPORTLLC   0107002310001000
627267084131555227252        00000050001129924623     DEBORAHIVELLISSEPEREZS  0107002310001001
627052001633446045357631     00000020001129924627     KKTRANSPORTLLC          0107002310001002
62710401413816020950         00000119001129924629     GFRAMINGINC             0107002310001003
6270631046680262586505       00000121001129924631     YUNIENTERPRISELLC       0107002310001004
627111000614652960367        00000169001129924635     DFWSERVICE              0107002310001005
62726547404410001060980800   00000040001129924637     COUNTRYBOYSMOKERSLLC    0107002310001006
6271119007850272943521       00000118001129924639     UITRANSPORTLLC          0107002310001007
6272110701751333152083       00000049001129924641     JJINNIVATIONSLLC        0107002310001008
6271110006142983504982       00000169001129924645     JACQUELINELOVEWORLINEC  0107002310001009
627021000021697300033        00000069001129924647     DUTCHLONDONLLC          0107002310001010
6270719239097927535240       00000149001129924651     NIJOLLC                 0107002310001011
627111000614527290099        00000110001129924653     ELITEPRIMETRUCKINGLLC   0107002310001012
627322282399641487442127     00000100001129924655     BRADKIRCHNER            0107002310001013
627111000025488092576591     00000074001129924669     BUCKETHEADLLC           0107002310001014
627263191387244471412        00000172001129924683     EDGEDANCESTUDIOSLLC     0107002310001015
627211288064700440378490     00000146001129924685     FUSIONHNTLLC            0107002310001016
6270670148224377717661       00000069001129924687     REYLOGISTICSERVICESINC  0107002310001017
62725148136811000003434062   00000079001129924689     BIGDOGAUTOTRANSPORTLLC  0107002310001018
627044000037577166827        00000049001129924691     MYWORLDSTUDIOSLLC       0107002310001019
627296075933709291580385     00000138001129924695     SOSOSNATCHEDBYTHEKLASS  0107002310001020
627111000614906889415        00000119001129924699     VALERIESELLSREALTYLLC   0107002310001021
627061092387700658757        00000119001129924701     WINNERSHOTPOTRESTAURAN  0107002310001022
627053100300008925444726     00000049001129924705     ONOURWAYTRUCKINGINC     0107002310001023
627121000358325145352848     00000199001129924707     E6TRUCKINGINC           0107002310001024
6270610002275017108944       00000239001129924709     DASHENTERPRISESLLC      0107002310001025
6270260128815330917765       00000047001129924715     AMERICANTRANSPORTATION  0107002310001026
6272560749747100622468       00000099001129924717     KIDZCORNERHAIRSALONLLC  0107002310001027
627121000358325078206087     00000099001129924721     LONDONELIASHOPKINS      0107002310001028
627113000023586038396459     00000047001129924725     CMPFIBERSERVICESLLC     0107002310001029
6270630139246774518116       00000134001129924727     NEXTGENERATIONCONCRETE  0107002310001030
6271130249153820479059       00000039001129924729     ROBERTRICHARDSON        0107002310001031
62707111206684440787         00000059001129924731     PEORIAGOLDTEETHANDMORE  0107002310001032
6270829013346503775          00000075001129924735     ORRSAPPLIANCESERVICEIN  0107002310001033
627021000322483086176313     00000109001129924737     MUSICDISTRIBUTIONCLUBI  0107002310001034
627061000052334064302425     00000149001129924743     TKWEXPRESSLLC           0107002310001035
627021202337279727009        00000049001129924751     DOMCODIRECTLLC          0107002310001036
627071000013577637710        00000059001129924753     NMFILLC                 0107002310001037
6270653033281217731          00000236001129924757     DARRELLLOONEY           0107002310001038
6270540000305364583916       00000030001129924759     JAMEELTATE              0107002310001039
6270410001244127780065       00000119001129924761     GOODFELLASBBQLLC        0107002310001040
627072000326390223201        00000079001129924763     JAHILLC                 0107002310001041
6271022020780331655601       00000039001129924767     MADMAXTRUCKINGLLC       0107002310001042
627082900432134266252        00000079001129924769     FMHARBISONMEMORIALSERV  0107002310001043
6271119007850303115607       00000069001129924771     ISATUBARRIE             0107002310001044
6270610002277923282359       00000084001129924775     MTTRUCKINGENTERPRISESL  0107002310001045
6273222705185550413          00000153001129924777     WEFABFABRICATIONLLC     0107002310001046
627021000021381800785        00000079001129924779     YACOUBAROGERKABORE      0107002310001047
627022300173917687738        00000029001129924781     FRIENDSANDFUNLLC        0107002310001048
627021000322483076045603     00000122001129924793     KEVINEMPIRERESTAURANT3  0107002310001049
627064000020444024338217     00000109001129924795     KROWNWIGSEXTENSIONSLLC  0107002310001050
6270622039841010003613347    00000058001129924799     TEMPTINGFACESPERMANENT  0107002310001051
