6270112014589292012          00000049001098707572     TEST         0107002310000001
6270112014589292012          00000049001098707572     MORGANAGALLIONE         0107002310000001
6272550719811361424100       00000049001099919194     DOCTRANSPORTSERVICELLC  0107002310000002
6270631021521000261709199    00000049001101993998     CAPRITRANSPORTATIONLLC  0107002310000003
627092902297141054           00000049001101996968     BRANDONJCLOUSE          0107002310000004
627114000093020773131        00000049001101997248     ALAMOASPHALTTESTINGLLC  0107002310000005
6272211721866500118157       00000049001102024232     SCOREBOARDSCAFELLC      0107002310000006
627121000358325137647367     00000049001102025196     JOEGARCIA               0107002310000007
6271119163261000705689       00000049001102026902     ASGARAGEDOORSERVICELLC  0107002310000008
627041201321826116           00000049001102235148     AGAPEHOMEHEALTHCARELLC  0107002310000009
627021200339381047476251     00000049001102235830     JPDUDLEYLOGISTICSLLC    0107002310000010
6270433068267802692603       00000049001102240218     PREMIERGUTTERGUARDANDC  0107002310000011
6272560749747112836163       00000049001102240360     KENRELLLLC              0107002310000012
627313185515926830316        00000049001102240468     GOATTRANSPORTATIONLLC   0107002310000013
627072000326537585835        00000049001102240608     BLACKSTARGLOBALCORPORA  0107002310000014
627072000326286993511        00000049001102240716     GREYHAWKEENTERPRISESLL  0107002310000015
6270410001244151917797       00000049001102242298     CAPTAINHOOK39SPAINTING  0107002310000016
627044000037855516105        00000049001102242590     TRINITYDESIGNANDCONSTR  0107002310000017
6271130112585797972360       00000049001102244286     MAJESTICPALMSLANDSCAPI  0107002310000018
6270650000907528139269       00000049001102245234     CAPITALVIRTUESLLC       0107002310000019
627281081877920548622        00000049001102245256     SFCRLLC                 0107002310000020
6273149784460230092033       00000049001102245268     JAMESADECKERJR          0107002310000021
627122101706457039891370     00000049001102245440     INTEGRITYCLEANING1LLC   0107002310000022
6270640037688499066291       00000049001108233014     NEXTLEVELTRANSPORTLLC   0107002310000023
627021200339381047061899     00000049001112478956     ALLWAYSFORWARDTRANSPOR  0107002310000024
627031202084383019814263     00000049001112480194     GPINVESTINGLLC          0107002310000025
627063100277229059266294     00000049001112481310     JJMPDENTALINC           0107002310000026
627122400724501013972857     00000049001112486546     TERCEROAUTOEXPRESSLLC   0107002310000027
6270531011210005208629281    00000049001112488038     SJMTRANSPORTLLC         0107002310000028
627021200339381059084026     00000049001112493342     CULTIVATEDBOHEMIANSLLC  0107002310000029
6270430000961082400546       00000049001112495390     OLIVIAWARD              0107002310000030
627071000013515121528        00000049001112495856     BISTRANSPORTINC         0107002310000031
627021000021393237380        00000049001112789204     LUGGAGEFITLLC           0107002310000032
627011900571385025675915     00000049001112789264     GENEJLAVIGNE            0107002310000033
62707590097330190001         00000049001112791312     MATTHEWSFAMILYTRUCKING  0107002310000034
627121000358325137743038     00000049001112793202     COSTELLOCLEANINGLLC     0107002310000035
6271119006597995158982       00000049001112793300     GENIALTRANSPORTATIONLL  0107002310000036
627021308642880074000        00000049001112793382     ROBERTFINCH             0107002310000037
6271221052783961752502       00000049001112793632     360FRESHSTARTLLC        0107002310000038
6272660865549147411995       00000049001112793644     NATURALLYUCOSMETICSLLC  0107002310000039
6271213010280082360670       00000049001112793670     SPILLMANSTAXSERVICESLL  0107002310000040
627074000010659336785        00000049001112793684     LAGENERALCONSTRUCTIONL  0107002310000041
6271130105476792581240       00000049001112793740     SPEEDOFLIGHTPRODUCTSQT  0107002310000042
627052001633446034810448     00000049001112793760     EVEDALEHOMEIMPROVEMENT  0107002310000043
627065400137117011525        00000049001112797500     ADVANCEDHEALTHRESOURCE  0107002310000044
627051000017004128811384     00000049001112797588     RUSTAVICONSTRUCTIONCOM  0107002310000045
627063000047898118982675     00000049001112797618     FASTFORWARDTRADINGCOMP  0107002310000046
627111000614213570291        00000049001112797714     DANIELDARBY             0107002310000047
6271220002475206122870       00000049001112797802     JOSEVELAZQUEZ           0107002310000048
6271049139129622063366       00000049001112802238     JBOYSTRUCKINGLLC        0107002310000049
6272560749747069107444       00000179001129934299     6789BEAUTYBARLLC        0107002310003146
